:080000004C06040000000000A2
:04005C00000200009E
:100400004200F8003600F8003200F800801F780043
:10041000200020000C000900B01F7800C982A9004C
:10042000CD82AA0085A0A900A00120000C0009002F
:100430004F1078004F0078003200F9003600F900C4
:100440004200F900004006000000E0004220AF003A
:1004500004003700600E0900000000000000E90001
:10046000FCFF3A0000000600F0FF2F000862AE001B
:100470000500370009C2AF00FEFF370011108800E9
:1004800009C2AF00FEFF37000000200009E2AF0004
:100490000000E800000006000862AE00040037001B
:1004A0000622A8000622AF00FEFF37000300370037
:1004B0000602A8000602AF00FEFF370081C7B300A6
:1004C00034020200000000008040EB003402020011
:1004D000000000003CC8BF0002E0B7003402020088
:1004E00000000000F00120000602B600FDFF3A0007
:1004F0000642A8000642AF00FEFF370000000600DB
:10050000D022A900D422A900800C200024020200DD
:1005100000000000D022A900D422A800C902A8002F
:10052000C922A8006AC0A8006AA0A80010C0B30031
:100530003CE8B7004C02020000000000A0C3B3007A
:100540003CE8B7004C02020000000000E0C1B3002C
:100550003CE8B7004C0202000000000020C0B300DD
:100560003CE8B7004C0202000000000050C0B3009D
:100570003CE8B7004C0202000000000090C0B3004D
:100580003CE8B7004C0202000000000090C3B3003A
:100590003CE8B7004C02020000000000E0C0B300DD
:1005A0003CE8B7004C02020000000000C0C1B300EC
:1005B0003CE8B7004C0202000000000030C1B3006C
:1005C0003CE8B7004C0202000000000070C7B30016
:1005D0003CE8B7004C02020000000000C0C5B300B8
:1005E0003CE8B7004C02020000000000E0C6B30087
:1005F0003CE8B7004C0202000000000080C3B300DA
:100600003CE8B7004C0202000000000000000600B9
:10061000851F780038C8BF000160EF00C502DD000B
:10062000C44180004822DE0004804200800278003D
:100630000508B3003C08F800E5FF9F003C08F900FE
:100640004C02020000000000CF027800000006000B
:10065000851F7800861F78003A68EF000862AE00B8
:10066000040037000622A8000622AF00FEFF370074
:10067000030037000602A8000602AF00FEFF3700A5
:1006800081C7B300340202000000000001C4B300BF
:100690003402020000000000D44180000960EF0035
:1006A000040078003808B400904278008502FB000E
:1006B0000500E0000B003200D44180000960EF002B
:1006C000040078003808B400904278008540780033
:1006D00034020200000000003A68EC004C03040001
:1006E00000000000F00120000602B600FDFF3A0005
:1006F0000642A8000642AF00FEFF37004F03780015
:10070000CF02780000000600D4D222007440880096
:10071000D4D222008440880074552400944088007C
:10072000C4342400A4408800F4D42400B4408800D9
:1007300054D42200C4408800D4D22200D44088007F
:10074000D4D22200E44088001E68EF00D4D22200F8
:1007500004418800D4D2220014418800D4D222005F
:1007600024418800D4D2220034418800D4D222000F
:1007700044418800D4D2220054418800D402200091
:100780006441880004252500744188005434250004
:10079000844188003405220094418800F4B4240088
:1007A000A44188003668EF003868EF003968EF0030
:1007B0000803020000000000E4802000C44188001B
:1007C000280302000000000010C0B30038E8B700A2
:1007D0003968EF00080302000000000004822000D6
:1007E000C4418800280302000000000020C0B300BC
:1007F00038E8B70010C0B30039E8B70008030200BA
:1008000000000000E4822000C441880028030200A8
:1008100000000000000006001221EF00F48F20000D
:100820007408880004002800940888002223EF0040
:100830000400280024198800D40F200064198800BF
:10084000141020004419880064542B0004198800F7
:1008500095A0A800000006006415240074408800DC
:10086000C4F42400844088002405220094408800B9
:1008700014442400A440880034A42300B440880019
:1008800004022000C44088003868EF003968EF0097
:100890000803020000000000E4802000C44188003A
:1008A000280302000000000000000600851F7800F9
:1008B0001408F8001608F9001208F8001408F900E6
:1008C0001008F8001208F9000E08F8001008F900E6
:1008D0000003F8000E08F9000E88BF00B440800045
:1008E0000020E10005003400B44080007340800027
:1008F00003005200840404000000000074408000E3
:10090000B34080000300520018A8B7001A88BF0047
:10091000C44080000020E100020036001808F80002
:100920001A08F9002408E20009003A002888BF00EC
:10093000C44080000020E1000500360014002000C3
:10094000244188001E08F8002008F9001E28EF0046
:10095000244180006120E10001003A002628EC00DB
:1009600034418000C30320000418E100110031006D
:100970002628EF002428EF001A88BF001C08B400C6
:1009800080027800454188002828D5001A08F80020
:100990001C08F9001A28EF004441800033002000B1
:1009A000110009000382D800444180000000520079
:1009B00028A8B700F4408000833E20000418E1001E
:1009C000050031001A28EF002828EF00140020004D
:1009D000244188001E28EF000441800013042000F9
:1009E0000418E1000900310004418000431F200089
:1009F0000418E1000500360084A9230003418000AB
:100A0000110009000382D80022A8B7002208F800CC
:100A10000000F900CF02780000000600811F780076
:100A200001408000805878008048EB00CF007800BB
:100A30000028EC0000000600851F7800C50020009B
:100A400003000900B51F780000F0A6000F00370072
:100A50000000EA000480A00004F0A6000B003700AC
:100A6000801F7800D0022000841F7800801F78004B
:100A70004F0078000E050200000000004F027800D1
:100A80004F0078000480A1000860ED008002EB00B8
:100A9000800378008404780004F0A1000404E000DE
:100AA00006003A0009F0A700020037000500200008
:100AB0001700370005002000150037000980A60048
:100AC000E64252000980A700E74252000F003900B9
:100AD0000003200009F0A60000022000801F78001B
:100AE000841F7800801F78004F0078000E050200F8
:100AF000000000004F0278004F0078008502E900F6
:100B0000F6FF3B005500200001003700840278000A
:100B1000640020000580A7000402E80005E0A000B2
:100B200009F0A70005F0A0000871220011000900DB
:100B30008883D800EE0502000000000081037800E1
:100B4000883E2000110009008883D800EE050200CD
:100B50000000000081037800480620001100090011
:100B60008883D800EE0502000000000081037800B1
:100B7000A8002000110009008883D800EE050200BB
:100B8000000000000980A6000A003700D002200003
:100B9000811F7800841F7800801F78004F00780044
:100BA0000E050200000000004F027800CF00780020
:100BB0000980A1000003200000C04000500188000F
:100BC000841F7800801F78004F0078000E05020017
:100BD000000000004F0278002A00370006032000C2
:100BE0000000E0000E003A0005E0A6001B00370000
:100BF0000402E9000524E100020032004200AF00D7
:100C0000000006000000E00005003A0005E0A60034
:100C10001200370005F0A600060220000F00370082
:100C200005E0A1000980A6000C003700000578004F
:100C3000D0022000811F7800841F7800801F780078
:100C40004F0078000E050200000000004F027800FF
:100C5000CF0078000980A1000A007800004043001E
:100C6000811F7800841F7800801F78004F00780073
:100C70000E050200000000004F027800CF0078004F
:100C8000000006002501200003000900CF127800B3
:100C9000CF027800000006000FF82300F0FF2300C9
:100CA00020A0B7000000000081E0A8000600FC00C2
:100CB000217420006204200073052000824878001F
:100CC0008348780042C7A90040F12300A4A6B700DA
:100CD00050F02300A8A6B70080702000C6A6B70079
:100CE00000302000D2A6B7000600FC0021742000CE
:100CF0006204200073052000824878008348780051
:100D000042C7A8000028EF00CD22A90007E2A800F2
:100D100007A2A80006C2A8000762A90006E2A9006F
:100D20000702A9000722A9000742A9000A22EF0032
:100D300024002000241088002CA3EF00C102A90089
:100D4000C502A80080020200000000008403020027
:100D500000000000C0E2A80000000000C2E2AE00F7
:100D600005003700400620002402020000000000B9
:100D7000AA060400000000000C04020000000000AD
:100D800010C0B3003CE8B7004C02020000000000B5
:100D90002C040200000000005604020000000000C5
:100DA0000CA8B70024802000044088000C88BF00F5
:100DB000040020001C0502000000000000C2B30077
:100DC0000E0502000000000000C2B3000E05020084
:100DD0000000000000C2B3000E0502000000000089
:100DE00024802000C4418800280302000000000085
:100DF0003868EF00B0C0B30039E8B700080302005C
:100E000000000000CC060400000000000040FE00CE
:0200000401F009
:10000000CF00FF00CF00FF000700FF000700FF0048
:100010006300FF005F00FF00F700FF00C300FF0068
:00000001FF
;DSPIC33FJ128MC804
;CRC=31E9  CREATED="16-dic.-20 21:01"
