:08000000AC0604000000000042
:0400440000020000B6
:040094002402000042
:100400004200F8003600F8003200F800801F780043
:10041000200020000C000900B01F7800C942A9008C
:10042000CD42AA0084E0A900A00120000C00090030
:100430004F1078004F0078003200F9003600F900C4
:100440004200F900004006004200F8003600F800C3
:100450003200F800801F7800200020000C00090006
:10046000B01F78007EC8BF000160EF00E1026000AD
:100470006128E10004003A00B4002000540C880018
:100480004A020400000000008A21EF00D0C2A90047
:10049000D4C2A9007E48E20005003200F443800087
:1004A000614052007EE8B7005C02040000000000DA
:1004B0009760A900000000008760A900A00120004B
:1004C0000C0009004F1078004F0078003200F9004E
:1004D0003600F9004200F900004006000000E0008C
:1004E0004220AF0004003700600E09000000000049
:1004F0000000E900FCFF3A0000000600F0FF2F00BA
:100500000862AE000500370009C2AF00FEFF3700E9
:100510001110880009C2AF00FEFF37000000200064
:1005200009E2AF000000E800000006000862AE002B
:10053000040037000622A8000622AF00FEFF3700A5
:10054000030037000602A8000602AF00FEFF3700D6
:1005500081C7B3007E020200000000008040EB0073
:100560007E0202000000000004C9BF0002E0B700E4
:100570007E02020000000000F00120000602B6002A
:10058000FDFF3A000642A8000642AF00FEFF37001A
:1005900000000600D022A900D422A900800C20006F
:1005A0006E02020000000000D022A900D422A800A0
:1005B000C902A800C922A8006AC0A8006AA0A800B1
:1005C00010C0B30004E9B70096020200000000006A
:1005D000A0C3B30004E9B7009602020000000000C7
:1005E000E0C1B30004E9B700960202000000000079
:1005F00020C0B30004E9B70096020200000000002A
:1006000050C0B30004E9B7009602020000000000E9
:1006100090C0B30004E9B700960202000000000099
:1006200090C3B30004E9B700960202000000000086
:10063000E0C0B30004E9B700960202000000000029
:10064000C0C1B30004E9B700960202000000000038
:1006500030C1B30004E9B7009602020000000000B8
:1006600070C7B30004E9B700960202000000000062
:10067000C0C5B30004E9B700960202000000000004
:10068000E0C6B30004E9B7009602020000000000D3
:1006900080C3B30004E9B700960202000000000026
:1006A000000006001221EF00B4402000740888000A
:1006B00004002800940888008821EF008A21EF00B8
:1006C0001E21EF0004872000D408880004032800BE
:1006D000F408880000000600851F7800FEC8BF00EF
:1006E0000160EF00C502DD00F44780004822DE0013
:1006F00004804200800278000508B3000409F80075
:10070000E5FF9F000409F9009602020000000000C6
:10071000CF02780000000600851F7800861F780051
:100720000069EF000862AE00040037000622A8004E
:100730000622AF00FEFF3700030037000602A800C4
:100740000602AF00FEFF370081C7B3007E02020041
:100750000000000001C4B3007E020200000000009F
:10076000044880000960EF0004007800FE08B4002F
:10077000904278008502FB000500E0000B0032008B
:10078000044880000960EF0004007800FE08B4000F
:1007900090427800854078007E0202000000000050
:1007A0000069EC00B003040000000000F00120002C
:1007B0000602B600FDFF3A000642A8000642AF005E
:1007C000FEFF37004F037800CF02780000000600DC
:1007D000D4D2220024468800D4D222003446880095
:1007E0007455240044468800C434240054468800CC
:1007F000F4D424006446880054D42200744688004F
:10080000D4D2220084468800D4D2220094468800A4
:10081000D468EF00D4D22200B4468800D4D222009B
:10082000C4468800D4D22200D4468800D4D2220004
:10083000E4468800D4D22200F4468800D4D22200B4
:1008400004478800D40220001447880004252500AE
:10085000244788005434250034478800340522009A
:1008600044478800F4B4240054478800EC68EF0043
:10087000FE68EF00FF68EF006C030200000000005C
:10088000448C2000F44788008C0302000000000024
:1008900010C0B300FEE8B700FF68EF006C03020071
:1008A00000000000648D2000F44788008C030200E3
:1008B0000000000020C0B300FEE8B70010C0B30085
:1008C000FFE8B7006C03020000000000448E200027
:1008D000F44788008C0302000000000000000600BE
:1008E00004F0290024198800046E280004198800E7
:1008F000F4FE2F00641988002223EF002823EF0064
:1009000000000600851F78007428EF007628EF00AD
:100910007028EF007228EF006E28EF006A28EF00C1
:100920006C28EF00C428EF00244680006520E10019
:100930000F003D00244680006220B800E4852000BE
:10094000840240002003A9002023A8002003AE0059
:10095000FEFF3700041880008402980092390900D5
:1009600000000000C428EC00940404000000000013
:1009700094E0A800CF02780000000600C0C0B300D9
:1009800004E9B7009602020000000000642425007C
:1009900024468800543424003446880054552400EA
:1009A00044468800E434240054468800941424000B
:1009B00064468800040225007446880004D524009B
:1009C00084468800A403220094468800D468EF007F
:1009D000D4D22200B4468800D4D22200C446880073
:1009E000D4D22200D4468800D4D22200E446880023
:1009F000D4D22200F4468800D4D2220004478800D2
:100A0000D4D2220014478800D4D222002447880080
:100A1000D4D2220034478800D40220004447880002
:100A20002444250054478800F4B424006447880017
:100A30000402250074478800142425008447880098
:100A4000140422009447880064942400A44788007A
:100A5000E4142400B4478800C4942400C4478800E8
:100A6000A4152400D447880024052000E44788000A
:100A7000FE68EF00FF68EF006C030200000000005A
:100A8000448C2000F44788008C0302000000000022
:100A900010C0B300FEE8B700FF68EF006C0302006F
:100AA00000000000648D2000F44788008C030200E1
:100AB0000000000020C0B300FEE8B700FF68EF00B0
:100AC0006C03020000000000A48E2000F4478800A0
:100AD0008C0302000000000000000600811F780067
:100AE00041448000805878008048EB00CF007800B7
:100AF0008828EC0000000600851F7800C500200053
:100B000003000900B51F780000F0A6000F003700B1
:100B10000000EA000480A00004F0A6000B003700EB
:100B2000801F7800D0022000841F7800801F78008A
:100B30004F0078006E050200000000004F027800B0
:100B40004F0078000480A1000860ED008002EB00F7
:100B5000800378008404780004F0A1000404E0001D
:100B600006003A0009F0A700020037000500200047
:100B70001700370005002000150037000980A60087
:100B8000E64252000980A700E74252000F003900F8
:100B90000003200009F0A60000022000801F78005A
:100BA000841F7800801F78004F0078006E050200D7
:100BB000000000004F0278004F0078008502E90035
:100BC000F6FF3B005500200001003700840278004A
:100BD000640020000580A7000402E80005E0A000F2
:100BE00009F0A70005F0A00008712200110009001B
:100BF0008883D8004E0602000000000081037800C0
:100C0000883E2000110009008883D8004E060200AB
:100C10000000000081037800480620001100090050
:100C20008883D8004E06020000000000810378008F
:100C3000A8002000110009008883D8004E06020099
:100C4000000000000980A6000A003700D002200042
:100C5000811F7800841F7800801F78004F00780083
:100C60006E050200000000004F027800CF007800FF
:100C70000980A1000003200000C04000500188004E
:100C8000841F7800801F78004F0078006E050200F6
:100C9000000000004F0278002A0037000603200001
:100CA0000000E0000E003A0005E0A6001B0037003F
:100CB0000402E9000524E100020032004200AF0016
:100CC000000006000000E00005003A0005E0A60074
:100CD0001200370005F0A600060220000F003700C2
:100CE00005E0A1000980A6000C003700000578008F
:100CF000D0022000811F7800841F7800801F7800B8
:100D00004F0078006E050200000000004F027800DE
:100D1000CF0078000980A1000A007800004043005D
:100D2000811F7800841F7800801F78004F007800B2
:100D30006E050200000000004F027800CF0078002E
:100D4000000006002501200003000900CF127800F2
:100D5000CF027800000006000FF72300F0FF230009
:100D600020A0B700000000004044240030058800A7
:100D7000404424008005880081E0A8000600FC00B3
:100D8000217420006204200073052000824878004E
:100D90008348780042C7A90040F12300A4A6B70009
:100DA00050F02300A8A6B70080702000C6A6B700A8
:100DB00000302000D2A6B70030012000D6A6B70030
:100DC0000600FC002174200062042000730520004E
:100DD000824878008348780042C7A80004002800B1
:100DE0000411880004402000141188002062A9002A
:100DF00014002000441188008028EF008228EF00B2
:100E0000CD22A90007E2A80007A2A80006C2A800F8
:100E10000762A90006E2A9000702A9000722A900AB
:100E20000742A9000A22EF002400200024108800B5
:100E30008828EF002CA3EF009628EF00CA020200DA
:100E4000000000005203020000000000E80302005E
:100E500000000000C0E2A80000000000C2E2AE00F6
:100E600005003700200320006E0202000000000091
:100E70002A07040000000000C0E2A80000000000F3
:100E8000C2E2AF0005003700200320006E0202001E
:100E9000000000003C070400000000007004020095
:100EA000000000001021EF00047721006408880092
:100EB0000402280084088800820402000000000068
:100EC00010C0B30004E9B700960202000000000061
:100ED000BE0402000000000014002000A4448800AA
:100EE0009A28EF00640420003444880092390900F5
:100EF00000000000C0E2A80000000000C2E2AE0056
:100F00005B00370034448000A30F20000418E10088
:100F100001003C000400370034448000330220000C
:100F20000418E100270035009A08E20021003A0089
:100F300010C0B30004E9B7009602020000000000F0
:100F4000FE68EF00FF68EF006C0302000000000085
:100F500004552500E4448800C4342500F444880086
:100F6000143424000445880094F4240014458800B7
:100F7000E4542400244588003405220034458800C8
:100F800014E4240044458800F4D424005445880027
:100F900014C4240064458800143425007445880076
:100FA000B068EF00C4892000F44788008C03020079
:100FB0000000000014002000C4448800F40704006E
:100FC000000000009A08E2000600320010C0B300E2
:100FD00004E9B7009602020000000000BE0402000F
:100FE000000000009828EF009408E2001A00320088
:100FF0009808E20018003A008688BF009608E300CF
:1010000015003200A4882000444488008688BF0070
:10101000040020007C0502000000000000C2B300B4
:101020006E0502000000000000C2B3006E05020061
:1010300000000000FE68EF0000C1B300FFE8B70049
:101040006C03020000000000A4882000F447880020
:101050008C030200000000009808F8009A08F900CC
:101060008608F8009608F9007A07040000000000DE
:1010700010C0B30004E9B7009602020000000000AF
:10108000FE68EF00FF68EF006C0302000000000044
:101090006494260094458800E4062200A445880054
:1010A00044562600B4458800C4062200C445880082
:1010B00004272700D4458800F4762600E4458800FC
:1010C00024172600F4458800D4162600044688001C
:1010D000C268EF00248B2000F44788008C030200D4
:0810E00000000000FFFF3700D3
:0200000401F009
:10000000CF00FF00CF00FF000700FF000700FF0048
:100010006300FF005F00FF00F700FF004300FF00E8
:00000001FF
;DSPIC33FJ128MC804
;CRC=C895  CREATED="30-dic.-20 17:59"
