:08000000440E040000000000A2
:04004400EA060000C8
:080094006C02000010070000DF
:100400003220EF00C3202000008041001040BA00DD
:100410000160EF000000060024520000657000003B
:1004200072650000736500006E7400006163000077
:10043000696F00006E2000006772000061660000B6
:1004400069630000612C0000467500006E630000C7
:10045000696F00006E2C000064610000746F000082
:1004600073200000310A0000000000003220EF007D
:1004700023242000008041001040BA000160EF00FA
:1004800000000600263000002C3100003030000053
:10049000302C0000302C0000312C0000300A00000D
:1004A000000000003220EF00E32520000080410022
:1004B0001040BA000160EF00000006002330000089
:1004C0002C320000303000002C3000002C310000B5
:1004D0002C3000000A0000004200F8003600F8004E
:1004E0003200F800801F7800200020000C00090076
:1004F000B01F7800A03981000160EF00E1026000C8
:100500006128E10004003A00B4002000540C880087
:1005100092020400000000008A21EF00D0C2A9006E
:10052000D4C2A900A03981000160EF000004E000FE
:1005300008003200A03981000160EF0061405000E6
:100540003427F800E0FF9F003427F900AE020400D2
:10055000000000009760A900000000008760A9006B
:10056000A00120000C0009004F1078004F00780017
:100570003200F9003600F9004200F90000400600A0
:10058000851F7800861F7800E10820000000E00049
:100590001200320000F0A700040037004200A9005A
:1005A0000080D2008100E900FAFF37000180FD00E1
:1005B0004200A9008180D30000F0A1000080FD006E
:1005C000814068000040B200070037000140780019
:1005D0000170A0000140B200030037000000EB00F2
:1005E0008000EB00000037004F037800CF02780056
:1005F00000000600851F7800861F7800871F78009E
:100600000382680004F0A600060037004200A9003B
:100610004220A90001F0A600260037004200A800F1
:10062000240037000102780080027800030378007C
:10063000820378008180D2000180FD008381D20096
:100640000380FD0081C051000500320004F0A600C7
:10065000180037001000200042E0B60015003700F7
:1006600084407800864178000170A1000370A100E9
:1006700081C051000500320004F0A6000D003700D3
:100680001000200042E0B6000A00370085805300C9
:100690000500320004F0A60006003700100020001C
:1006A00042E0B600030037004200A9000100370015
:1006B00000003700CF0378004F037800CF027800A6
:1006C0000000060090E181000160EF00F4072000C7
:1006D0000024E1000700360090E181000060D400B2
:1006E0003427F800E0FF9F003427F900800304005E
:1006F00000000000A0398100F0CFB300A0398900CC
:100700009760A80000000600851F7800C500200043
:1007100004000900B51F78008004EB0083846800A2
:1007200001037800800278000304780082037800D7
:100730008180D2000180FD008180FB000100E0008B
:100740004E0032008381D2000380FD008381FB00D4
:100750000300E000490032000000EB0003C050003D
:1007600003003900F047B0004400310003003700B7
:100770001048B10041003900400032008500780087
:10078000060178000270A000F20FB200F80FB2006C
:100790000870A0009A0120008001EB000002EB002D
:1007A0008780500008015900020033000400310026
:1007B00004003A008780400008014900010037002A
:1007C0000400A0000A05E900070032004200A90069
:1007D0008180D2000281D2004200A9000482D200AE
:1007E0008381D200EEFF37000005EB000380A700F5
:1007F00001003700060037004200A9008381D300C2
:100800000370A1000482D3000A85D20002003700E1
:100810000000E900190032000AF0A70005003900C5
:100820008180D2000281D2008780500008015900E7
:10083000090039000402E80007003A008301E800DB
:1008400005003A000000E8000C003200020037000A
:100850000000E900090032000080FD008080D30024
:1008600001F0A00009F0A60001F0A1000370A100B2
:1008700081C06900040078000300370000002000F8
:10088000010020000000370045012000040009009D
:10089000CF127800CF02780000000600851F780094
:1008A000C500200003000900B51F78008004EB009C
:1008B000080028004300AF0083016C000000E00046
:1008C00003003A00FAFF27000A8560004220AE00CC
:1008D000010578008A8569000103780083037800A8
:1008E000030678004220A9004200A9000683D20036
:1008F0000680FD00F60FB2000600E000A100320005
:100900004220A9004200A9008783D2000780FD0091
:10091000F70FB2000700E0009F0032004220A9005C
:100920004200A9000638E1009C003200A300330019
:100930000900A1000910A0000684530007037800F5
:10094000F10FB2000170A000F30FB2000370A0001D
:10095000870220000838E100110033004220A9007E
:100960004200A9008180D3000080D3000804E90080
:10097000FAFF3A000D003700870220000838E10036
:10098000090033004220A9004200A9008381D3005E
:100990000281D3000804E900FAFF3A000F00370093
:1009A0000200780083007800430037000BF0A600B7
:1009B000110037000940A7008C0578000000EA000C
:1009C0000200320081C0EA00010037008100EA0025
:1009D0000940A7002B003700070037000BF0A600E6
:1009E000050037000201EA000200320083C1EA007C
:1009F000010037008301EA00F50FB2004220A90090
:100A00004200A9000200400083C048004200AF003D
:100A10000930A0000900A700090037000910A7004D
:100A2000010037000B0037000BF0A700150037005E
:100A30000930A700290037000960A0001E00370018
:100A40000BF0A7000F0037000930A7002300370084
:100A5000190037000920A1000BF0A700040037009F
:100A60008A0578000930A7001C00370036003700DF
:100A70000940A00001C8B2000170A700CDFF3700F7
:100A80008A057800F10FB200810370000A0032007D
:100A90000170A700080037004220A9004200A90009
:100AA0000080D2008180D2000603E9004220AF001E
:100AB00031003700F6FF37000900A7008A057800EB
:100AC0000910A7008C0578000950A6001A0037000D
:100AD0000AF0A7000080A0001B0037004200A80019
:100AE00081C0D3000080D3004200AF000950A000B5
:100AF0000603E800200032000950A6000800370075
:100B00000000E80006003A008140E80004003A00D6
:100B100081C0D3000080D3000603E8001600320035
:100B20000900A7008A0578000910A7008C05780045
:100B30004220AF00100037000960A7008A05780046
:100B40000970A7008C0578000101700023003200B5
:100B50000170A1000680FD004220A9004200A9000A
:100B60000683D30081006B0001F0A0000BF0A6000B
:100B700001F0A10019003700000020000100200052
:100B8000160037000AF0A70083016C00020078000D
:100B9000830078001100370010003700F30FB20017
:100BA0000370A000F10FB2000170A0000BF0A700CD
:100BB0000370A1000920A00088FF3700070453003C
:100BC000F10FB2000170A000F30FB2000370A0009B
:100BD0000910A1000900A00067FF370025012000CF
:100BE00003000900CF127800CF0278000000060051
:100BF000851F7800E01CF800E21CF900DE1CF800FC
:100C0000E01CF900DC1CF800DE1CF900DA1CF8001E
:100C1000DC1CF900D81CF800DA1CF9002003A9003C
:100C20002023A8002003AE00FEFF37000003F800D9
:100C3000D81CF900D89CBF0014E780000020E10018
:100C40000500360014E78000C3E680000300520070
:100C50003206040000000000C4E6800013E78000B4
:100C600003005200E4BCB700E69CBF0024E780000C
:100C70000020E10002003600E41CF800E61CF90048
:100C8000F01CAF0013003700E49CBF00C00202005C
:100C9000000000000001780081017800EA9CBF009C
:100CA00061E78000FA02020000000000090039003C
:100CB000F01CA800F21CF800F41CF900F23CEF0054
:100CC00090E1810010C0B30090E18900620302004E
:100CD00000000000F01CAE0001003700EE3CEC000C
:100CE00074E78000C30320000418E1001C003100F9
:100CF000EE3CEF00F01CA900E69CBF00E81CB4002D
:100D0000800278004128DE00C002020000000000DE
:100D1000EABCB70061E78800E61CF800E81CF900AF
:100D2000E63CEF00EA9CBF0061E780000200200083
:100D30000304240084030200000000004300A80014
:100D40000001780081017800EA9CBF0061E7800023
:100D50004E04020000000000EABCB70061E7880012
:100D600094E78000833E20000418E1000500310074
:100D7000E63CEF00EA3CEF00EC3CEF00F01CA80082
:100D8000F23CEF00A4E78000130420000418E10007
:100D900009003100A4E78000431F20000418E1008F
:100DA0000500360084A92300A3E780001100090094
:100DB0000382D80080E1890094E78000610042004E
:100DC000F2BCB700303CF8000000F900CF02780018
:100DD000000006004200F8003600F8003200F8007B
:100DE000801F7800200020000C000900B01F780050
:100DF000F805020000000000C0DD890084E0A900C1
:100E0000A00120000C0009004F1078004F0078006E
:100E10003200F9003600F9004200F90000400600F7
:100E20004200F8003600F8003200F800801F780019
:100E3000200020000C000900B01F7800F03CA80042
:100E40008780A900A00120000C0009004F10780045
:100E50004F0078003200F9003600F9004200F90036
:100E6000004006000000E0004220AF000400370010
:100E7000600E0900000000000000E900FCFF3A00DD
:100E800000000600F0FF2F000862AE0005003700EA
:100E900009C2AF00FEFF37001110880009C2AF0081
:100EA000FEFF37000000200009E2AF000000E8006C
:100EB000000006000862AE00040037000622A80009
:100EC0000622AF00FEFF3700030037000602A8002D
:100ED0000602AF00FEFF370081C7B30042070200E1
:100EE000000000008040EB0042070200000000000C
:100EF00071E181004207020000000000F0012000C3
:100F00000602B600FDFF3A000642A8000642AF0006
:100F1000FEFF370000000600D022A900D422A9005D
:100F2000800C20003207020000000000D022A9003F
:100F3000D422A800C902A800C922A8006AC0A8003B
:100F40006AA0A80070E1810010C0B30070E18900C0
:100F50005A0702000000000070E18100A0C3B30046
:100F600070E189005A0702000000000070E1810072
:100F7000E0C1B30070E189005A07020000000000E0
:100F800070E1810020C0B30070E189005A070200BF
:100F90000000000070E1810050C0B30070E18900E2
:100FA0005A0702000000000070E1810090C0B30009
:100FB00070E189005A0702000000000070E1810022
:100FC00090C3B30070E189005A07020000000000DE
:100FD00070E18100E0C0B30070E189005A070200AF
:100FE0000000000070E18100C0C1B30070E1890021
:100FF0005A0702000000000070E1810030C1B30018
:1010000070E189005A0702000000000070E18100D1
:1010100070C7B30070E189005A07020000000000A9
:1010200070E18100C0C5B30070E189005A07020079
:101030000000000070E18100E0C6B30070E18900AB
:101040005A0702000000000070E1810080C3B30075
:1010500070E189005A07020000000000000006004D
:101060001221EF00142E20007408880004002800CC
:10107000940888008821EF008A21EF001E21EF00EC
:1010800034732000D408880004012800F408880084
:1010900000000600851F780040E181000160EF003C
:1010A000C502DD0044E181004822DE0004804200E8
:1010B000800278000508B3002E3CF800E5FF9F0091
:1010C0002E3CF9005A07020000000000CF02780011
:1010D00000000600851F7800861F780050E181001F
:1010E00000C0B30050E189000862AE000400370080
:1010F0000622A8000622AF00FEFF370003003700DB
:101100000602A8000602AF00FEFF370081C7B30049
:10111000420702000000000001C4B30042070200C1
:101120000000000054E181000960EF0040E181000F
:1011300000004200904278008502FB000500E000BC
:101140000F00320054E181000960EF0040E18100AE
:10115000000042009042780085407800420702007B
:101160000000000050E181000040E8002A3CF80047
:10117000E0FF9F002A3CF9009208040000000000F4
:10118000F00120000602B600FDFF3A000642A8006A
:101190000642AF00FEFF37004F037800CF02780011
:1011A00000000600D4D2220074DF8900D4D22200CD
:1011B00084DF89007455240094DF8900C43424003E
:1011C000A4DF8900F4D42400B4DF890054D42200C1
:1011D000C4DF8900D4D22200D4DF8900D4D2220017
:1011E000E4DF8900F0DF810000C0B300F0DF890098
:1011F000D4D2220004E08900D4D2220014E0890075
:10120000D4D2220024E08900D4D2220034E0890024
:10121000D4D2220044E08900D4D2220054E08900D4
:10122000D402200064E089000425250074E08900D0
:101230005434250084E089003405220094E08900BC
:10124000F4B42400A4E08900B0E0810000C0B30041
:10125000B0E0890040E1810000C0B30040E18900B6
:1012600040E181000160EF0040E189004A0802008E
:1012700000000000E4BE230044E189006A08020087
:101280000000000040E1810010C0B30040E189008F
:1012900040E181000160EF0040E189004A0802005E
:1012A0000000000004C0230044E189006A08020035
:1012B0000000000040E1810020C0B30040E189004F
:1012C00040E181000080FD0010C0B3000080FD00FF
:1012D00040E189004A08020000000000E4C0230049
:1012E00044E189006A0802000000000000000600D6
:1012F000C102A900C502A80004F029002419880031
:10130000046E280004198800F4FE2F006419880078
:101310002223EF004400200044198800000006004A
:10132000851F7800F23CEF00EE3CEF00EA3CEF0056
:10133000EC3CEF00F01CA900E63CEF00E83CEF00BD
:101340000400200074DF890070DF81006600E10086
:1013500012003D0070DF8100000278006220B800BA
:1013600084CD2100840240002003A9002023A8008E
:101370002003AE00FEFF37000418800084029800AE
:10138000923909000000000070DF81000000E800D1
:1013900070DF8900A40904000000000094E0A800A8
:1013A000CF0278000000060070E18100C0C0B300E9
:1013B00070E189005A0702000000000070E181001E
:1013C00010C0B30070E189005A070200000000005D
:1013D0006424250074DF89005434240084DF8900EC
:1013E0005455240094DF8900E4342400A4DF8900EC
:1013F00094142400B4DF890004022500C4DF8900AE
:1014000004D52400D4DF8900A4032200E4DF89008E
:10141000F0DF810000C0B300F0DF8900D4D22200E9
:1014200004E08900D4D2220014E08900D4D2220042
:1014300024E08900D4D2220034E08900D4D22200F2
:1014400044E08900D4D2220054E08900D4D22200A2
:1014500064E08900D4D2220074E08900D4D2220052
:1014600084E08900D402200094E08900244425000F
:10147000A4E08900F4B42400B4E08900040225004B
:10148000C4E0890014242500D4E08900140422005B
:10149000E4E0890064942400F4E08900E41424006A
:1014A00004E18900C494240014E18900A4152400F7
:1014B00024E189002405200034E1890040E1810015
:1014C00000C0B30040E1890040E181000160EF000D
:1014D00040E189004A08020000000000E4BE230049
:1014E00044E189006A0802000000000040E1810038
:1014F00010C0B30040E1890040E181000160EF00CD
:1015000040E189004A0802000000000004C02300F6
:1015100044E189006A0802000000000040E1810007
:1015200020C0B30040E1890040E181000160EF008C
:1015300040E189004A0802000000000044C1230085
:1015400044E189006A080200000000000000060073
:1015500070E1810010C0B30070E189005A070200F9
:101560000000000040E1810000C0B30040E18900BC
:1015700040E181000160EF0040E189004A0802007B
:10158000000000000455250074DF8900C4342500E4
:1015900084DF89001434240094DF890094F424004B
:1015A000A4DF8900E4542400B4DF8900340522005C
:1015B000C4DF890054C42400D4DF890054642500AA
:1015C000E4DF890014442400F4DF8900143425008A
:1015D00004E0890010E0810000C0B30010E0890041
:1015E000E4BE230044E189006A0802000000000014
:1015F0000000060070E1810010C0B30070E18900B6
:101600005A0702000000000040E1810000C0B30062
:1016100040E1890040E181000160EF0040E1890084
:101620004A080200000000000455250074DF89000C
:10163000C434250084DF89001434240094DF890039
:1016400094F42400A4DF8900E4542400B4DF89006A
:1016500034052200C4DF890024142400D4DF89006B
:10166000A4142400E4DF890034052000F4DF89009D
:10167000E4BE230044E189006A0802000000000083
:1016800000000600811F7800F1DE8100805878009C
:101690008048EB00CF007800F0DE81000000E80019
:1016A000F0DE890000000600851F7800C5002000DC
:1016B00003000900B51F780000F0A6000F003700F6
:1016C0000000EA000480A00004F0A6000B00370030
:1016D000801F7800D0022000841F7800801F7800CF
:1016E0004F007800420B0200000000004F0278001B
:1016F0004F0078000480A1000860ED008002EB003C
:10170000800378008404780004F0A1000404E00061
:1017100006003A0009F0A70002003700050020008B
:101720001700370005002000150037000980A600CB
:10173000E64252000980A700E74252000F0039003C
:101740000003200009F0A60000022000801F78009E
:10175000841F7800801F78004F007800420B020041
:10176000000000004F0278004F0078008502E90079
:10177000F6FF3B005500200001003700840278008E
:10178000640020000580A7000402E80005E0A00036
:1017900009F0A70005F0A00008712200110009005F
:1017A0008883D800260C0200000000008103780026
:1017B000883E2000110009008883D800260C020012
:1017C0000000000081037800480620001100090095
:1017D0008883D800260C02000000000081037800F6
:1017E000A8002000110009008883D800260C020000
:1017F000000000000980A6000A003700D002200087
:10180000811F7800841F7800801F78004F007800C7
:10181000420B0200000000004F027800CF00780069
:101820000980A1000003200000C040005001880092
:10183000841F7800801F78004F007800420B020060
:10184000000000004F0278002A0037000603200045
:101850000000E0000E003A0005E0A6001B00370083
:101860000402E9000524E100020032004200AF005A
:10187000000006000000E00005003A0005E0A600B8
:101880001200370005F0A600060220000F00370006
:1018900005E0A1000980A6000C00370000057800D3
:1018A000D0022000811F7800841F7800801F7800FC
:1018B0004F007800420B0200000000004F02780049
:1018C000CF0078000980A1000A00780000404300A2
:1018D000811F7800841F7800801F78004F007800F7
:1018E000420B0200000000004F027800CF00780099
:1018F000000006002501200003000900CF12780037
:10190000CF02780000000600851F7800C500200087
:1019100003000900B51F780000F0A6000C00370096
:101920000000EA000480A00004F0A60008003700D0
:10193000801F7800D00220002322AF00FEFF370076
:1019400024A2B7004F0078000480A1000860ED00D9
:101950008002EB00800378008404780004F0A1008A
:101960000404E00006003A0009F0A7000200370076
:101970000500200014003700050020001200370089
:101980000980A600E64252000980A700E742520003
:101990000C0039000003200009F0A600000220001E
:1019A000801F78002322AF00FEFF370024A2B7007B
:1019B0004F0078008502E900F9FF3B005500200048
:1019C0000100370084027800640020000580A70031
:1019D0000402E80005E0A00009F0A70005F0A0005F
:1019E00008712200110009008883D8003A0D020016
:1019F0000000000081037800883E200011000900EB
:101A00008883D8003A0D02000000000081037800AE
:101A100048062000110009008883D8003A0D020012
:101A20000000000081037800A800200011000900D8
:101A30008883D8003A0D0200000000000980A6004B
:101A400005003700D00220002322AF00FEFF370040
:101A500024A2B7000980A1000003200000C04000BC
:101A6000500188002322AF00FEFF370024A2B700F8
:101A700020003700060320000000E0000E003A00BE
:101A800005E0A600160037000402E9000524E10085
:101A9000020032004200AF00000006000000E0003B
:101AA00005003A0005E0A6000D00370005F0A6008D
:101AB000060220000A00370005E0A1000980A60008
:101AC0000700370000057800D00220002322AF0075
:101AD000FEFF370024A2B7000980A1000A007800A9
:101AE000004043002322AF00FEFF370024A2B700CE
:101AF000000006002501200003000900CF12780035
:101B0000CF02780000000600C122A80000000000FB
:101B1000C322AE00FCFF3700010020000100780066
:101B20000160EF0000020200000000008100E800F8
:101B30002322AF00FEFF370024A2B700700220006E
:101B40000008E600F5FF37000100200001007800E2
:101B50000160EF0036020200000000008100E80092
:101B60002322AF00FEFF370024A2B700D0002000E0
:101B70000008E600F5FF37000100200001007800B2
:101B80000160EF0052020200000000008100E80046
:101B90002322AF00FEFF370024A2B700C0002000C0
:101BA0000008E600F5FF370070DF810034002000F8
:101BB000840C0200000000002322AF00FEFF37006B
:101BC000A4002000241188009239090000000000C0
:101BD000C122A80000000000C322AF0002003700AD
:101BE000840D040000000000D40D0400000000007B
:101BF0000000060070E1810010C0B30070E18900B0
:101C00005A0702000000000040E1810000C0B3005C
:101C100040E1890040E181000160EF0040E189007E
:101C20004A080200000000006494260074DF890066
:101C3000E406220084DF89004456260094DF8900F0
:101C4000C4062200A4DF890004272700B4DF89002E
:101C5000F4762600C4DF890024172600D4DF89002B
:101C6000D4162600E4DF8900F0DF810000C0B30055
:101C7000F0DF8900E4BE230044E189006A08020025
:101C800000000000000006000FF62300F0FF230014
:101C900020A0B70000000000404424003005880068
:101CA000404424008005880081E0A8000600FC0074
:101CB000217420006204200073052000824878000F
:101CC0008348780042C7A90040F12300A4A6B700CA
:101CD00050602000A8A6B70080702000C6A6B700FC
:101CE00000302000D2A6B70030012000D6A6B700F1
:101CF0000600FC002174200062042000730520000F
:101D0000824878008348780042C7A800447E2000BB
:101D10008494880040C1B30092F2B700A0C0B30021
:101D200093F2B700F0C0B30094F2B700C0C0B300A4
:101D300095F2B70020C2B30096F2B70080C3B3009B
:101D400097F2B7005A2AEF005C2AEF00040028003F
:101D50000411880004402000141188002062A900AA
:101D600014002000441188003D003700800202006A
:101D700004020000800202000A0000008004020049
:101D80002000800000048000020228000100800082
:101D900002032C00FFFF800004149A0000000000E2
:101DA0000080010018BD140080071C00D0E407006B
:101DB0000A0F0C0022388000041EF600000000000C
:101DC0000080010023191400800727002CE407007D
:101DD0000A0F0C00223880000427360000000000A3
:101DE00000800400293A0000000000008008310053
:101DF00070E40700140A0F000C223800800433003E
:101E00007A0000000000800001379D001480070068
:101E10003BB0E400070A0F000C22380080023B00B0
:101E2000DE000000000000000201E8006110E10097
:101E300004003A009101BA003182BA0006C0BF0026
:101E4000000006006210E10002003A0007C0BF0077
:101E50000000060008C0BF000001EB000000060003
:101E600006002000000020009001880060EB2000A8
:101E7000800078000001EB00140F02000000000059
:101E80000BE0B700140F0200000000000AE0B700EA
:101E90000500E0001900320005F0A6000700370039
:101EA000140F0200000000000DE0B700140F020044
:101EB000000000000CE0B70005F0A10005E0A6005E
:101EC0000800370005E0A1008502E900140F0200B8
:101ED000000000008043780005800900075B78005F
:101EE000E5FF3700140F020000000000005B7800DF
:101EF0008502E900FBFF3A00DFFF37000400200005
:101F000064DF890000DF81000020A90000DF890074
:101F100000DF81000040A90000DF890000DF8100B0
:101F20000060A90000DF8900F03CA8008C070200D7
:101F3000000000003008020000000000D20802008B
:101F400000000000C0E2A80000000000C2E2AE00F5
:101F500005003700200320003207020000000000C7
:101F6000A20F040000000000C0E2A8000000000072
:101F7000C2E2AF0005003700200320003207020054
:101F800000000000B40F0400000000007809020007
:101F9000000000001021EF00347320006408880066
:101FA00004012800840888002021EF0034732000F9
:101FB000E408880004012800040988009009020050
:101FC00000000000D409020000000000923909005E
:101FD00000000000C0E2A80000000000C2E2AE0065
:101FE00074003700C0DD8100A40F20000020E10054
:101FF00001003E0004003700C0DD810034022000F3
:102000000020E1002A00390004DF81000410A7004D
:1020100022003700C0DD8100A40F20000020E10075
:102020000D003E0004DF81000420A7000A003700F5
:10203000A80A02000000000000DF81000040A800A4
:1020400000DF890000DF81000060A90000DF890057
:10205000D0C2A900D4C2A800C0DD81003402200093
:102060000020E1000D00390004DF81000430A700EA
:102070000A003700FA0A02000000000000DF8100B9
:102080000060A80000DF890000DF81000040A90097
:1020900000DF8900D0C2A900D4C2A80000DF8100FF
:1020A0000000A80000DF8900B81004000000000054
:1020B00004DF81000410A60004003700D4090200E8
:1020C00000000000D0C2A900D4C2A90000DF810036
:1020D0000000A90000DF890000DF81000060A90086
:1020E00000DF890000DF81000040A90000DF8900D7
:1020F000C0DD810064DF81000020E1001C003200AF
:1021000024BE2300F4DE8900C0DD8100040020002D
:10211000540B02000000000000C2B300420B02009A
:102120000000000000C2B300420B020000000000EB
:1021300040E1810000C0B30040E1890040E181003E
:102140000080FD0000C1B3000080FD0040E1890077
:102150004A0802000000000024BE230044E1890078
:102160006A08020000000000B83BF800EC3BF900F0
:10217000F03CAE0005003700B83BF800EE3BF9003C
:10218000840D020000000000F03CA90004DF810083
:102190000820A90003DF81000300A7000820A80091
:1021A000E03BF800E4FF9F00E03BF900EA0F040089
:1021B00000000000FA0D020000000000FFFF3700E1
:0200000401F009
:10000000CF00FF00CF00FF000700FF000700FF0048
:100010006300FF005F00FF00F700FF004300FF00E8
:00000001FF
;DSPIC33FJ128MC804
;CRC=19D7  CREATED="17-ene.-21 13:59"
