:08000000920D04000000000055
:04004400D2060000E0
:080094006C020000F8060000F8
:100400003220EF00C3202000008041001040BA00DD
:100410000160EF000000060024520000657000003B
:1004200072650000736500006E7400006163000077
:10043000696F00006E2000006772000061660000B6
:1004400069630000612C0000467500006E630000C7
:10045000696F00006E2C000064610000746F000082
:1004600073200000310A0000000000003220EF007D
:1004700023242000008041001040BA000160EF00FA
:1004800000000600263000002C3100003030000053
:10049000302C0000302C0000312C0000300A00000D
:1004A000000000003220EF00E32520000080410022
:1004B0001040BA000160EF00000006002330000089
:1004C0002C320000303000002C3000002C310000B5
:1004D0002C3000000A0000004200F8003600F8004E
:1004E0003200F800801F7800200020000C00090076
:1004F000B01F78005AC8BF000160EF00E102600041
:100500006128E10004003A00B4002000540C880087
:1005100092020400000000008A21EF00D0C2A9006E
:10052000D4C2A9005A48E20005003200D44280003B
:10053000614052005AE8B700A20204000000000027
:100540009760A9008760A900A00120000C000900A5
:100550004F1078004F0078003200F9003600F900A3
:100560004200F90000400600851F7800861F7800D1
:10057000E10820000000E0001200320000F0A700B7
:10058000040037004200A9000080D2008100E90089
:10059000FAFF37000180FD004200A9008180D300EE
:1005A00000F0A1000080FD00814068000040B20022
:1005B00007003700014078000170A0000140B20040
:1005C000030037000000EB008000EB000000370064
:1005D0004F037800CF02780000000600851F7800E6
:1005E000861F7800871F78000382680004F0A60049
:1005F000060037004200A9004220A90001F0A60031
:10060000260037004200A8002400370001027800CD
:100610008002780003037800820378008180D20092
:100620000180FD008381D2000380FD0081C0510064
:100630000500320004F0A60018003700100020006A
:1006400042E0B6001500370084407800864178000B
:100650000170A1000370A10081C0510005003200AB
:1006600004F0A6000D0037001000200042E0B600A4
:100670000A003700858053000500320004F0A60010
:10068000060037001000200042E0B60003003700EB
:100690004200A9000100370000003700CF037800B6
:1006A0004F037800CF027800000006009499800084
:1006B000F3072000041CE1000500360032D3BF0020
:1006C0005AE8B7005A68D4006A030400000000002A
:1006D0005AE8EF009760A80000000600851F780028
:1006E000C500200004000900B51F78008004EB005D
:1006F0008384680001037800800278000304780096
:10070000820378008180D2000180FD008180FB009F
:100710000100E0004E0032008381D2000380FD0022
:100720008381FB000300E000490032000000EB0081
:1007300003C0500003003900F047B000440031000E
:10074000030037001048B10041003900400032007A
:1007500085007800060178000270A000F20FB20058
:10076000F80FB2000870A0009A0120008001EB0091
:100770000002EB008780500008015900020033009E
:100780000400310004003A0087804000080149005D
:10079000010037000400A0000A05E900070032004C
:1007A0004200A9008180D2000281D2004200A9004B
:1007B0000482D2008381D200EEFF37000005EB00F7
:1007C0000380A70001003700060037004200A9009F
:1007D0008381D3000370A1000482D3000A85D20074
:1007E000020037000000E900190032000AF0A700FB
:1007F000050039008180D2000281D200878050003C
:1008000008015900090039000402E80007003A0015
:100810008301E80005003A000000E8000C00320007
:10082000020037000000E900090032000080FD00EE
:100830008080D30001F0A00009F0A60001F0A10023
:100840000370A10081C06900040078000300370034
:1008500000002000010020000000370045012000BA
:1008600004000900CF127800CF02780000000600D3
:10087000851F7800C500200003000900B51F78001F
:100880008004EB00080028004300AF0083016C00E7
:100890000000E00003003A00FAFF27000A8560002C
:1008A0004220AE00010578008A85690001037800C6
:1008B00083037800030678004220A9004200A900C3
:1008C0000683D2000680FD00F60FB2000600E000AD
:1008D000A10032004220A9004200A9008783D20073
:1008E0000780FD00F70FB2000700E0009F00320014
:1008F0004220A9004200A9000638E1009C00320015
:10090000A30033000900A1000910A00006845300D1
:1009100007037800F10FB2000170A000F30FB200DE
:100920000370A000870220000838E10011003300A6
:100930004220A9004200A9008180D3000080D3009A
:100940000804E900FAFF3A000D0037008702200092
:100950000838E100090033004220A9004200A90044
:100960008381D3000281D3000804E900FAFF3A0032
:100970000F00370002007800830078004300370042
:100980000BF0A600110037000940A7008C05780085
:100990000000EA000200320081C0EA0001003700D6
:1009A0008100EA000940A7002B003700070037004C
:1009B0000BF0A600050037000201EA000200320039
:1009C00083C1EA00010037008301EA00F50FB2009D
:1009D0004220A9004200A9000200400083C0480054
:1009E0004200AF000930A0000900A700090037004D
:1009F0000910A700010037000B0037000BF0A7001B
:100A0000150037000930A700290037000960A00051
:100A10001E0037000BF0A7000F0037000930A700B9
:100A200023003700190037000920A1000BF0A700B0
:100A3000040037008A0578000930A7001C00370041
:100A4000360037000940A00001C8B2000170A700BD
:100A5000CDFF37008A057800F10FB20081037000E6
:100A60000A0032000170A700080037004220A900E8
:100A70004200A9000080D2008180D2000603E90074
:100A80004220AF0031003700F6FF37000900A70011
:100A90008A0578000910A7008C0578000950A60087
:100AA0001A0037000AF0A7000080A0001B003700E2
:100AB0004200A80081C0D3000080D3004200AF00F4
:100AC0000950A0000603E800200032000950A600EB
:100AD000080037000000E80006003A008140E80006
:100AE00004003A0081C0D3000080D3000603E80070
:100AF000160032000900A7008A0578000910A70037
:100B00008C0578004220AF00100037000960A70074
:100B10008A0578000970A7008C0578000101700033
:100B2000230032000170A1000680FD004220A900D0
:100B30004200A9000683D30081006B0001F0A000F1
:100B40000BF0A60001F0A100190037000000200002
:100B500001002000160037000AF0A70083016C0096
:100B60000200780083007800110037001000370081
:100B7000F30FB2000370A000F10FB2000170A000EB
:100B80000BF0A7000370A1000920A00088FF370028
:100B900007045300F10FB2000170A000F30FB20080
:100BA0000370A0000910A1000900A00067FF370032
:100BB0002501200003000900CF127800CF02780041
:100BC00000000600851F78006408F8006608F90038
:100BD0006208F8006408F9006008F8006208F9008B
:100BE0005E08F8006008F9005C08F8005E08F9008B
:100BF0002003A9002023A8002003AE00FEFF370039
:100C00000003F8005C08F9005C88BF0034438000F2
:100C10000020E1000500360034438000E3428000FC
:100C2000030052001C06040000000000E4428000A3
:100C3000334380000300520068A8B7006A88BF00F1
:100C4000444380000020E100020036006808F800FC
:100C50006A08F9005B08AF00120037006888BF001F
:100C6000B402020000000000000178008101780059
:100C70006E88BF0081438000EE0202000000000089
:100C8000080039005B08A8007408F8007608F9002D
:100C90007428EF0010C0B30032F3B700560302000F
:100CA000000000005B08AE00010037007228EC0075
:100CB00094438000C30320000418E1001C003100AD
:100CC0007228EF005B08A9006A88BF006C08B400B6
:100CD000800278004128DE00B4020200000000001B
:100CE0006EA8B700814388006A08F8006C08F90014
:100CF0006A28EF006E88BF00814380000200200058
:100D0000030424006E030200000000004300A8005A
:100D100000017800810178006E88BF008143800067
:100D200038040200000000006EA8B700814388006C
:100D3000A4438000833E20000418E1000500310038
:100D40006A28EF006E28EF007028EF005B08A8000B
:100D50007428EF00B4438000130420000418E1005D
:100D600009003100B4438000431F20000418E10053
:100D70000500360084A92300B34380001100090058
:100D80000382D80030B3B700A44380006100420062
:100D900074A8B7003013F8000000F900CF02780003
:100DA000000006004200F8003600F8003200F800AB
:100DB000801F7800200020000C000900B01F780080
:100DC000E205020000000000B8B2B70084E0A9000C
:100DD000A00120000C0009004F1078004F0078009F
:100DE0003200F9003600F9004200F9000040060028
:100DF0004200F8003600F8003200F800801F78004A
:100E0000200020000C000900B01F78005B28A8001B
:100E10008780A900A00120000C0009004F10780075
:100E20004F0078003200F9003600F9004200F90066
:100E3000004006000000E0004220AF000400370040
:100E4000600E0900000000000000E900FCFF3A000D
:100E500000000600F0FF2F000862AE00050037001A
:100E600009C2AF00FEFF37001110880009C2AF00B1
:100E7000FEFF37000000200009E2AF000000E8009C
:100E8000000006000862AE00040037000622A80039
:100E90000622AF00FEFF3700030037000602A8005D
:100EA0000602AF00FEFF370081C7B3002A07020029
:100EB000000000008040EB002A0702000000000054
:100EC0002ED3BF0002E0B7002A0702000000000096
:100ED000F00120000602B600FDFF3A000642A8001D
:100EE0000642AF00FEFF370000000600D022A90036
:100EF000D422A900800C20001A0702000000000084
:100F0000D022A900D422A800C902A800C922A800A2
:100F10006AC0A8006AA0A80010C0B3002EF3B700F2
:100F20004207020000000000A0C3B3002EF3B70088
:100F30004207020000000000E0C1B3002EF3B7003A
:100F4000420702000000000020C0B3002EF3B700EB
:100F5000420702000000000050C0B3002EF3B700AB
:100F6000420702000000000090C0B3002EF3B7005B
:100F7000420702000000000090C3B3002EF3B70048
:100F80004207020000000000E0C0B3002EF3B700EB
:100F90004207020000000000C0C1B3002EF3B700FA
:100FA000420702000000000030C1B3002EF3B7007A
:100FB000420702000000000070C7B3002EF3B70024
:100FC0004207020000000000C0C5B3002EF3B700C6
:100FD0004207020000000000E0C6B3002EF3B70095
:100FE000420702000000000080C3B3002EF3B700E8
:100FF0004207020000000000000006001221EF007E
:10100000142E20007408880004002800940888002A
:101010008821EF008A21EF001E21EF0034732000A9
:10102000D408880004012800F408880000000600A5
:10103000851F780026D3BF000160EF00C502DD00E8
:10104000349980004822DE0004804200800278004B
:101050000508B3002E13F800E5FF9F002E13F900DA
:101060004207020000000000CF02780000000600E6
:10107000851F7800861F78002873EF000862AE0095
:10108000040037000622A8000622AF00FEFF37004A
:10109000030037000602A8000602AF00FEFF37007B
:1010A00081C7B3002A0702000000000001C4B3009A
:1010B0002A07020000000000449980000960EF0048
:1010C000040078002613B400904278008502FB00EB
:1010D0000500E0000B003200449980000960EF0039
:1010E000040078002613B400904278008540780010
:1010F0002A070200000000002873EC005C080400CE
:1011000000000000F00120000602B600FDFF3A00DA
:101110000642A8000642AF00FEFF37004F037800EA
:10112000CF02780000000600D4D222006497880025
:10113000D4D22200749788007455240084978800C4
:10114000C434240094978800F4D42400A497880021
:1011500054D42200B4978800D4D22200C4978800C7
:10116000D4D22200D4978800FC72EF00D4D222009F
:10117000F4978800D4D2220004988800D4D22200A8
:1011800014988800D4D2220024988800D4D2220057
:1011900034988800D4D2220044988800D4022000D9
:1011A000549888000425250064988800543425004C
:1011B000749888003405220084988800F4B42400D0
:1011C000949888001473EF002673EF002773EF00E4
:1011D0001808020000000000C42E21003499880085
:1011E000380802000000000010C0B30026F3B7006A
:1011F0002773EF001808020000000000E42F210010
:1012000034998800380802000000000020C0B300B4
:1012100026F3B70010C0B30027F3B7001808020088
:1012200000000000C4302100349988003808020012
:101230000000000000000600C102A900C502A800CD
:1012400004F0290024198800046E2800041988007D
:10125000F4FE2F00641988002223EF0044002000D0
:101260004419880000000600851F78007428EF00EC
:101270007228EF006E28EF007028EF005B08A900CD
:101280006A28EF006C28EF00EC32EF0064978000D2
:101290006620E1000F003D00649780006220B800E6
:1012A000C4852000840240002003A9002023A80058
:1012B0002003AE00FEFF370004188000840298006F
:1012C0009239090000000000EC32EC0046090400ED
:1012D0000000000094E0A800CF02780000000600A3
:1012E000C0C0B3002EF3B7004207020000000000A8
:1012F00010C0B3002EF3B700420702000000000048
:10130000642425006497880054342400749788006E
:101310005455240084978800E4342400949788006E
:1013200094142400A497880004022500B497880030
:1013300004D52400C4978800A4032200D497880011
:10134000FC72EF00D4D22200F4978800D4D222009D
:1013500004988800D4D2220014988800D4D22200A5
:1013600024988800D4D2220034988800D4D2220055
:1013700044988800D4D2220054988800D4D2220005
:1013800064988800D4D2220074988800D402200087
:10139000849888002444250094988800F4B424009C
:1013A000A498880004022500B4988800142425001D
:1013B000C498880014042200D498880064942400FF
:1013C000E4988800E4142400F4988800C49424006D
:1013D00004998800A415240014998800240520008D
:1013E000249988002673EF002773EF001808020085
:1013F00000000000C42E2100349988003808020043
:101400000000000010C0B30026F3B7002773EF0000
:101410001808020000000000E42F21003499880021
:10142000380802000000000020C0B30026F3B70017
:101430002773EF001808020000000000243121008B
:1014400034998800380802000000000000000600FF
:1014500010C0B3002EF3B7004207020000000000E6
:101460002673EF002773EF00180802000000000049
:101470000455250064978800C434250074978800BB
:10148000143424008497880094F4240094978800EE
:10149000E4542400A497880034052200B4978800FF
:1014A00054C42400C497880054642500D49788004D
:1014B00014442400E497880014342500F49788002D
:1014C0000073EF00C42E2100349988003808020010
:1014D000000000000000060010C0B3002EF3B700AB
:1014E00042070200000000002673EF002773EF00A0
:1014F00018080200000000000455250064978800C9
:10150000C43425007497880014342400849788001C
:1015100094F4240094978800E4542400A49788004D
:1015200034052200B497880024142400C49788004E
:10153000A4142400D497880034052000E497880080
:10154000C42E2100349988003808020000000000F1
:1015500000000600811F7800E19680008058780026
:101560008048EB00CF007800DC32EC000000060081
:10157000851F7800C500200003000900B51F780012
:1015800000F0A6000F0037000000EA000480A00071
:1015900004F0A6000B003700801F7800D002200066
:1015A000841F7800801F78004F007800AA0A02008C
:1015B000000000004F0278004F0078000480A10076
:1015C0000860ED008002EB0080037800840478005E
:1015D00004F0A1000404E00006003A0009F0A700AE
:1015E000020037000500200017003700050020002A
:1015F000150037000980A600E64252000980A700C6
:10160000E74252000F0039000003200009F0A60055
:1016100000022000801F7800841F7800801F78005F
:101620004F007800AA0A0200000000004F02780074
:101630004F0078008502E900F6FF3B0055002000CE
:101640000100370084027800640020000580A700B4
:101650000402E80005E0A00009F0A70005F0A000E2
:1016600008712200110009008883D8008A0B02004B
:101670000000000081037800883E2000110009006E
:101680008883D8008A0B02000000000081037800E4
:1016900048062000110009008883D8008A0B020048
:1016A0000000000081037800A8002000110009005C
:1016B0008883D8008A0B0200000000000980A60081
:1016C0000A003700D0022000811F7800841F7800B4
:1016D000801F78004F007800AA0A02000000000076
:1016E0004F027800CF0078000980A100000320009D
:1016F00000C0400050018800841F7800801F7800DF
:101700004F007800AA0A0200000000004F02780093
:101710002A003700060320000000E0000E003A0017
:1017200005E0A6001B0037000402E9000524E100E3
:10173000020032004200AF00000006000000E0009E
:1017400005003A0005E0A6001200370005F0A600EB
:10175000060220000F00370005E0A1000980A60066
:101760000C00370000057800D0022000811F7800AF
:10177000841F7800801F78004F007800AA0A0200BA
:10178000000000004F027800CF0078000980A1001F
:101790000A00780000404300811F7800841F780011
:1017A000801F78004F007800AA0A020000000000A5
:1017B0004F027800CF0078000000060025012000CD
:1017C00003000900CF127800CF0278000000060065
:1017D000851F7800C500200003000900B51F7800B0
:1017E00000F0A6000C0037000000EA000480A00012
:1017F00004F0A60008003700801F7800D002200007
:101800002322AF00FEFF370024A2B7004F0078006C
:101810000480A1000860ED008002EB0080037800E6
:101820008404780004F0A1000404E00006003A00FB
:1018300009F0A7000200370005002000140037005F
:1018400005002000120037000980A600E642520081
:101850000980A700E74252000C0039000003200075
:1018600009F0A60000022000801F78002322AF00AC
:10187000FEFF370024A2B7004F0078008502E90080
:10188000F9FF3B005500200001003700840278007A
:10189000640020000580A7000402E80005E0A00025
:1018A00009F0A70005F0A00008712200110009004E
:1018B0008883D8009E0C020000000000810378009D
:1018C000883E2000110009008883D8009E0C020089
:1018D0000000000081037800480620001100090084
:1018E0008883D8009E0C020000000000810378006D
:1018F000A8002000110009008883D8009E0C020077
:10190000000000000980A60005003700D00220007A
:101910002322AF00FEFF370024A2B7000980A100F8
:101920000003200000C04000500188002322AF00C7
:10193000FEFF370024A2B700200037000603200076
:101940000000E0000E003A0005E0A6001600370097
:101950000402E9000524E100020032004200AF0069
:10196000000006000000E00005003A0005E0A600C7
:101970000D00370005F0A600060220000A0037001F
:1019800005E0A1000980A6000700370000057800E7
:10199000D00220002322AF00FEFF370024A2B700B0
:1019A0000980A1000A007800004043002322AF0014
:1019B000FEFF370024A2B70000000600250120002A
:1019C00003000900CF127800CF0278000000060063
:1019D000C122A800C322AE00FDFF37000100200095
:1019E000010078000160EF0000020200000000002A
:1019F0008100E8002322AF00FEFF370024A2B700D9
:101A0000700220000008E600F5FF3700010020000A
:101A1000010078000160EF003602020000000000C3
:101A20008100E8002322AF00FEFF370024A2B700A8
:101A3000D00020000008E600F5FF3700010020007C
:101A4000010078000160EF00520202000000000077
:101A50008100E8002322AF00FEFF370024A2B70078
:101A6000C00020000008E600F5FF3700EC92BF0040
:101A700034002800E80B0200000000002322AF0021
:101A8000FEFF3700A40020002411880092390900CD
:101A900000000000C122A800C322AF0002003700EE
:101AA000E80C0400000000000000060010C0B300B5
:101AB0002EF3B70042070200000000002673EF007B
:101AC0002773EF001808020000000000649426004D
:101AD00064978800E4062200749788004456260024
:101AE00084978800C4062200949788000427270062
:101AF000A4978800F4762600B4978800241726005F
:101B0000C4978800D4162600D4978800FC72EF0092
:101B1000C42E21003499880038080200000000001B
:101B2000000006000F762400F07F240020A0B700FC
:101B30000000000040442400300588004044240098
:101B40008005880081E0A8006004200042E7B7001B
:101B50007005200042E7B70042C7A90040F123000A
:101B6000A4A6B70050F02300A8A6B70080702000FC
:101B7000C6A6B70000302000D2A6B7003001200072
:101B8000D6A6B7006004200042E7B7007005200029
:101B900042E7B70042C7A800CD22A90007E2A8008B
:101BA00007A2A80006C2A8000762A90006E2A800D2
:101BB0000702A9000722A8000742A9000A22EF0095
:101BC0002402200024108800447E200074958800A0
:101BD00040C1B300B0F2B700A0C0B300B1F2B7008B
:101BE000F0C0B300B2F2B700C0C0B300B3F2B700A8
:101BF00020C2B300B4F2B70080C3B300B5F2B7009F
:101C0000782AEF007A2AEF000400280004118800E7
:101C100004402000141188002062A9001400200054
:101C200044118800DC32EF002CA3EF00EA32EF0011
:101C3000E932A900E952A900E972A9005B28A800CD
:101C40007607020000000000FE070200000000000E
:101C50009408020000000000C0E2A800C2E2AE004A
:101C600005003700200320001A07020000000000D2
:101C70002C0E040000000000C0E2A800C2E2AF0089
:101C800005003700200320001A07020000000000B2
:101C90003C0E0400000000001C09020000000000CF
:101CA0001021EF003473200064088800040128002C
:101CB000840888002021EF0034732000E4088800A5
:101CC0000401280004098800340902000000000013
:101CD00070090200000000009239090000000000B5
:101CE000C0E2A800C2E2AE0055003700C4958000F3
:101CF000A30F20000418E10001003E00040037009B
:101D0000C4958000330220000418E1001D00390052
:101D1000E932AF0018003700C4958000A30F2000FF
:101D20000418E10008003E00E952AF000600370049
:101D3000280A020000000000E952A800E972A90088
:101D4000D0C2A900D4C2A800C495800033022000EC
:101D50000418E10008003900E972AF0006003700FE
:101D60006C0A020000000000E972A800E952A90014
:101D7000D0C2A900D4C2A800E912A800080F04002C
:101D800000000000E932AE000400370070090200D4
:101D900000000000D0C2A900D4C2A900E912A90025
:101DA000E972A900E952A900B892BF00EA12E30063
:101DB00017003200042E2100E4968800B892BF007C
:101DC00004002000B80A02000000000000C2B300B6
:101DD000AA0A02000000000000C2B300AA0A020022
:101DE000000000002673EF0000C1B30027F3B70026
:101DF0001808020000000000042E21003499880019
:101E00003808020000000000B812F800EA12F900D9
:101E10005B28AE0005003700B812F800EC12F9009C
:101E2000E80C0200000000005B28A900E932A900CC
:101E3000E912AF00E932A800700E040000000000B3
:0C1E4000560D020000000000FFFF3700FC
:0200000401F009
:10000000CF0000FFCF0000FF070000FF070000FF48
:10001000630000FF5F0000FFF00000FF430000FFEF
:00000001FF
;DSPIC33FJ128MC804
;CRC=100F  CREATED="18-ene.-21 18:19"
