:08000000FC1D040000000000DB
:0400440008070000A9
:08009400A00200002E0700008D
:100400003220EF00C3202000008041001040BA00DD
:100410000160EF0000000600534600002C31000090
:100420000D0000003220EF00E32120000080410099
:100430001040BA000160EF000000060053410000C8
:100440002C3000000D0000003220EF0003232000BC
:10045000008041001040BA000160EF00000006007B
:10046000522C0000310D0000000000003220EF008F
:1004700023242000008041001040BA000160EF00FA
:100480000000060024520000657000007265000044
:10049000736500006E74000061630000696F000006
:1004A0006E20000067720000616600006963000052
:1004B000612C0000467500006E630000696F00004B
:1004C0006E2C000064610000746F00007320000057
:1004D000310A0000000000003220EF0083272000D6
:1004E000008041001040BA000160EF0000000600EB
:1004F000263000002C320000353000002C30000087
:100500002C3100002C3000000A0000003220EF00E7
:1005100023292000008041001040BA000160EF0054
:1005200000000600233000002C32000035300000AF
:100530002C3000002C3100002C3000000A0000009C
:100540004200F8003600F8003200F800801F780002
:10055000200020000C000900B01F78005AC8BF001E
:100560000160EF00E10260006128E10004003A0050
:10057000B4002000540C8800C602040000000000F3
:100580008A21EF00D0C2A900D4C2A9005A48E200D3
:1005900005003200D4428000614052005AE8B700A2
:1005A000D8020400000000009760A90000000000CD
:1005B0008760A900A00120000C0009004F107800FE
:1005C0004F0078003200F9003600F9004200F900CF
:1005D00000400600851F7800861F7800E108200093
:1005E0000000E0001200320000F0A7000400370015
:1005F0004200A9000080D2008100E900FAFF370024
:100600000180FD004200A9008180D30000F0A1001C
:100610000080FD00814068000040B2000700370004
:10062000014078000170A0000140B20003003700D3
:100630000000EB008000EB00000037004F03780063
:10064000CF02780000000600851F7800861F780022
:10065000871F78000382680004F0A60006003700B8
:100660004200A9004220A90001F0A60026003700A0
:100670004200A800240037000102780080027800C0
:1006800003037800820378008180D2000180FD009E
:100690008381D2000380FD0081C05100050032003B
:1006A00004F0A600180037001000200042E0B60059
:1006B0001500370084407800864178000170A10061
:1006C0000370A10081C051000500320004F0A600B3
:1006D0000D0037001000200042E0B6000A0037008D
:1006E000858053000500320004F0A60006003700A4
:1006F0001000200042E0B600030037004200A900CD
:100700000100370000003700CF0378004F03780066
:10071000CF02780000000600F49A8000F307200062
:10072000041CE100050036005ED3BF005AE8B700A4
:100730005A68D400A0030400000000005AE8EF004B
:100740009760A80000000600851F7800C500200003
:1007500004000900B51F78008004EB008384680062
:100760000103780080027800030478008203780097
:100770008180D2000180FD008180FB000100E0004B
:100780004E0032008381D2000380FD008381FB0094
:100790000300E000490032000000EB0003C05000FD
:1007A00003003900F047B000440031000300370077
:1007B0001048B10041003900400032008500780047
:1007C000060178000270A000F20FB200F80FB2002C
:1007D0000870A0009A0120008001EB000002EB00ED
:1007E00087805000080159000200330004003100E6
:1007F00004003A00878040000801490001003700EA
:100800000400A0000A05E900070032004200A90028
:100810008180D2000281D2004200A9000482D2006D
:100820008381D200EEFF37000005EB000380A700B4
:1008300001003700060037004200A9008381D30081
:100840000370A1000482D3000A85D20002003700A1
:100850000000E900190032000AF0A7000500390085
:100860008180D2000281D2008780500008015900A7
:10087000090039000402E80007003A008301E8009B
:1008800005003A000000E8000C00320002003700CA
:100890000000E900090032000080FD008080D300E4
:1008A00001F0A00009F0A60001F0A1000370A10072
:1008B00081C06900040078000300370000002000B8
:1008C000010020000000370045012000040009005D
:1008D000CF127800CF02780000000600851F780054
:1008E000C500200003000900B51F78008004EB005C
:1008F000080028004300AF0083016C000000E00006
:1009000003003A00FAFF27000A8560004220AE008B
:10091000010578008A856900010378008303780067
:10092000030678004220A9004200A9000683D200F5
:100930000680FD00F60FB2000600E000A1003200C4
:100940004220A9004200A9008783D2000780FD0051
:10095000F70FB2000700E0009F0032004220A9001C
:100960004200A9000638E1009C003200A3003300D9
:100970000900A1000910A0000684530007037800B5
:10098000F10FB2000170A000F30FB2000370A000DD
:10099000870220000838E100110033004220A9003E
:1009A0004200A9008180D3000080D3000804E90040
:1009B000FAFF3A000D003700870220000838E100F6
:1009C000090033004220A9004200A9008381D3001E
:1009D0000281D3000804E900FAFF3A000F00370053
:1009E0000200780083007800430037000BF0A60077
:1009F000110037000940A7008C0578000000EA00CC
:100A00000200320081C0EA00010037008100EA00E4
:100A10000940A7002B003700070037000BF0A600A5
:100A2000050037000201EA000200320083C1EA003B
:100A3000010037008301EA00F50FB2004220A9004F
:100A40004200A9000200400083C048004200AF00FD
:100A50000930A0000900A700090037000910A7000D
:100A6000010037000B0037000BF0A700150037001E
:100A70000930A700290037000960A0001E003700D8
:100A80000BF0A7000F0037000930A7002300370044
:100A9000190037000920A1000BF0A700040037005F
:100AA0008A0578000930A7001C003700360037009F
:100AB0000940A00001C8B2000170A700CDFF3700B7
:100AC0008A057800F10FB200810370000A0032003D
:100AD0000170A700080037004220A9004200A900C9
:100AE0000080D2008180D2000603E9004220AF00DE
:100AF00031003700F6FF37000900A7008A057800AB
:100B00000910A7008C0578000950A6001A003700CC
:100B10000AF0A7000080A0001B0037004200A800D8
:100B200081C0D3000080D3004200AF000950A00074
:100B30000603E800200032000950A6000800370034
:100B40000000E80006003A008140E80004003A0096
:100B500081C0D3000080D3000603E80016003200F5
:100B60000900A7008A0578000910A7008C05780005
:100B70004220AF00100037000960A7008A05780006
:100B80000970A7008C057800010170002300320075
:100B90000170A1000680FD004220A9004200A900CA
:100BA0000683D30081006B0001F0A0000BF0A600CB
:100BB00001F0A10019003700000020000100200012
:100BC000160037000AF0A70083016C0002007800CD
:100BD000830078001100370010003700F30FB200D7
:100BE0000370A000F10FB2000170A0000BF0A7008D
:100BF0000370A1000920A00088FF370007045300FC
:100C0000F10FB2000170A000F30FB2000370A0005A
:100C10000910A1000900A00067FF3700250120008E
:100C200003000900CF127800CF0278000000060010
:100C3000851F78006408F8006608F9006208F8006B
:100C40006408F9006008F8006208F9005E08F8001E
:100C50006008F9005C08F8005E08F9002003A900AC
:100C60002023A8002003AE00FEFF37000003F80099
:100C70005C08F9005C88BF00344380000020E1007C
:100C80000500360034438000E34280000300520038
:100C90005206040000000000E4428000334380005C
:100CA0000300520068A8B7006A88BF004443800070
:100CB0000020E100020036006808F8006A08F90028
:100CC0005B08AF00120037006888BF00EA0202002C
:100CD0000000000000017800810178006E88BF00EC
:100CE0008143800024030200000000000800390056
:100CF0005B08A8007408F8007608F9007428EF0073
:100D000010C0B3005EF3B7008C03020000000000C7
:100D10005B08AE00010037007228EC0094438000AD
:100D2000C30320000418E1001C0031007228EF000A
:100D30005B08A9006A88BF006C08B40080027800D4
:100D40004128DE00EA020200000000006EA8B700A1
:100D5000814388006A08F8006C08F9006A28EF00EF
:100D60006E88BF008143800002002000030424003D
:100D7000A4030200000000004300A8000001780066
:100D8000810178006E88BF00814380006E040200FC
:100D9000000000006EA8B70081438800A4438000D3
:100DA000833E20000418E100050031006A28EF00AE
:100DB0006E28EF007028EF005B08A8007428EF0091
:100DC000B4438000C30320000418E100090031008F
:100DD000B4438000E32E20000418E1000500360033
:100DE00084A92300B3438000110009000382D800C6
:100DF0005CB3B700A44380006100420074A8B70050
:100E00005C13F8000000F900CF0278000000060033
:100E10004200F8003600F8003200F800801F780029
:100E2000200020000C000900B01F78001806020006
:100E300000000000DEB2B70084E0A900A00120009D
:100E40000C0009004F1078004F0078003200F900C4
:100E50003600F9004200F900004006004200F800A8
:100E60003600F8003200F800801F780020002000D3
:100E70000C000900B01F78005B28A8008780A9003B
:100E8000A00120000C0009004F1078004F007800EE
:100E90003200F9003600F9004200F9000040060077
:100EA0000000E0004220AF00040037009515090063
:100EB000000000000000E900FCFF3A00000006000E
:100EC0002322AF00FEFF37004402200024118800D7
:100ED0002322AF00FEFF37004402200024118800C7
:100EE0002322AF00FEFF37004402200024118800B7
:100EF000401F2000500702000000000001002000F9
:100F0000010078000160EF00000202000000000014
:100F10008100E8002322AF00FEFF370024A2B700C3
:100F2000400020000008E600F5FF3700401F2000C9
:100F300050070200000000000100200001007800BE
:100F40000160EF0012020200000000008100E800D2
:100F50002322AF00FEFF370024A2B700400020008C
:100F60000008E600F5FF3700401F20005007020090
:100F70000000000001002000010078000160EF0087
:100F800024020200000000008100E8002322AF00DC
:100F9000FEFF370024A2B700300020000008E60062
:100FA000F5FF3700401F200050070200000000003E
:100FB00000000600F0FF2F000862AE0005003700B9
:100FC00009C2AF00FEFF37001110880009C2AF0050
:100FD000FEFF37000000200009E2AF000000E8003B
:100FE000000006000862AE00040037000622A800D8
:100FF0000622AF00FEFF3700030037000602A800FC
:101000000602AF00FEFF370081C7B300DA07020017
:10101000000000008040EB00DA0702000000000042
:101020002ED3BF0002E0B700DA0702000000000084
:10103000F00120000602B600FDFF3A000642A800BB
:101040000642AF00FEFF370000000600D022A900D4
:10105000D422A900800C20005007020000000000EC
:10106000D022A900D422A800C902A800C922A80041
:101070006AC0A8006AA0A80010C0B3002EF3B70091
:10108000F207020000000000A0C3B3002EF3B70077
:10109000F207020000000000E0C1B3002EF3B70029
:1010A000F20702000000000020C0B3002EF3B700DA
:1010B000F20702000000000050C0B3002EF3B7009A
:1010C000F20702000000000090C0B3002EF3B7004A
:1010D000F20702000000000090C3B3002EF3B70037
:1010E000F207020000000000E0C0B3002EF3B700DA
:1010F000F207020000000000C0C1B3002EF3B700E9
:10110000F20702000000000030C1B3002EF3B70068
:10111000F20702000000000070C7B3002EF3B70012
:10112000F207020000000000C0C5B3002EF3B700B4
:10113000F207020000000000E0C6B3002EF3B70083
:10114000F20702000000000080C3B3002EF3B700D6
:10115000F207020000000000C0C0B3002EF3B70089
:10116000F207020000000000000006001221EF005C
:10117000142E2000740888000400280094088800B9
:101180008821EF008A21EF001E21EF003473200038
:10119000D408880004012800F40888000000060034
:1011A000851F780028D3BF000160EF00C502DD0075
:1011B000449980004822DE000480420080027800CA
:1011C0000508B3002E13F800E5FF9F002E13F90069
:1011D000F207020000000000CF02780000000600C5
:1011E000851F7800861F78002A73EF000862AE0022
:1011F000040037000622A8000622AF00FEFF3700D9
:10120000030037000602A8000602AF00FEFF370009
:1012100081C7B300DA0702000000000001C4B30078
:10122000DA07020000000000549980000960EF0016
:10123000040078002813B400904278008502FB0077
:101240000500E0000B003200549980000960EF00B7
:10125000040078002813B40090427800854078009C
:10126000DA070200000000002A73EC0014090400F1
:1012700000000000F00120000602B600FDFF3A0069
:101280000642A8000642AF00FEFF37004F03780079
:10129000CF02780000000600D4D2220074978800A4
:1012A000D4D2220084978800745524009497880033
:1012B000C4342400A4978800F4D42400B497880090
:1012C00054D42200C4978800D4D22200D497880036
:1012D000D4D22200E4978800FE72EF00D4D222001C
:1012E00004988800D4D2220014988800D4D2220016
:1012F00024988800D4D2220034988800D4D22200C6
:1013000044988800D4D2220054988800D402200047
:1013100064988800042525007498880054342500BA
:10132000849888003405220094988800F4B424003E
:10133000A49888001673EF002873EF002973EF005C
:10134000D008020000000000E42E2100449988002B
:10135000F00802000000000010C0B30028F3B7003E
:101360002973EF00D00802000000000004302100C3
:1013700044998800F00802000000000020C0B3007B
:1013800028F3B70010C0B30029F3B700D00802005B
:1013900000000000E430210044998800F0080200B9
:1013A0000000000000000600C102A900C502A8005C
:1013B00004F0290024198800046E2800041988000C
:1013C000F4FE2F00641988002223EF00440020005F
:1013D0004419880000000600851F78005AF3EF00CA
:1013E00040C2A9005AD3BF0048E2B7004022AF0074
:1013F000FEFF37004002AE00FEFF370048C2BF00CC
:1014000000E0B70050D3BF005AF3B70040C2A900B4
:101410005AD3BF0048E2B7004022AF00FEFF3700BA
:101420004002AE00FEFF370048C2BF0000E0B70038
:1014300055D3BF0080427800851F78005A13F8000A
:10144000E5FF9F005A13F90040C2A9005AD3BF001C
:1014500048E2B7004022AF00FEFF37004002AE0076
:10146000FEFF370048C2BF0000E0B700CF0278009F
:1014700054D3BF000AE0B700851F78005A13F80064
:10148000E5FF9F005A13F90040C2A9005AD3BF00DC
:1014900048E2B7004022AF00FEFF37004002AE0036
:1014A000FEFF370048C2BF0000E0B700CF0278005F
:1014B00053D3BF0080427800851F78005A13F8008C
:1014C000E5FF9F005A13F90040C2A9005AD3BF009C
:1014D00048E2B7004022AF00FEFF37004002AE00F6
:1014E000FEFF370048C2BF0000E0B700CF0278001F
:1014F00052D3BF000AE0B700851F78005A13F800E6
:10150000E5FF9F005A13F90040C2A9005AD3BF005B
:1015100048E2B7004022AF00FEFF37004002AE00B5
:10152000FEFF370048C2BF0000E0B700CF027800DE
:1015300051D3BF005AF3B70040C2A9005AD3BF002D
:1015400048E2B7004022AF00FEFF37004002AE0085
:10155000FEFF370048C2BF0000E0B7005AF3EF00BB
:1015600040C2A9005AD3BF0048E2B7004022AF00F2
:10157000FEFF37004002AE00FEFF370048C2BF004A
:1015800000E0B70056F3B700B49A8000F4CFB20081
:10159000F2FF320056D3BF0000E0B700CF02780060
:1015A00000000600851F7800B652E20007003A00EE
:1015B000940020000402E8000402E9000300320065
:1015C0004633D40048B3D600FBFF3700D0A2A900B1
:1015D000D4A2A90010C5B30050F3B700F0CFB300F8
:1015E00051F3B7004613F8005213F9004813F800FE
:1015F0005413F900EC090200000000004CF3B7009E
:101600004C53E2004B003A005AF3EF0040C2A900ED
:101610005AD3BF0048E2B7004022AF00FEFF3700B8
:101620004002AE00FEFF370048C2BF0000E0B70036
:101630004CF3B700649A8000E4CFB200F2FF3A00A6
:10164000649A8000E4CFB20036003A004E33EF00D7
:10165000749A8000032020000418E1001300360073
:101660004E93BF004A13B40080027800851F7800B3
:101670005AF3EF0040C2A9005AD3BF0048E2B700B6
:101680004022AF00FEFF37004002AE00FEFF3700F1
:1016900048C2BF0000E0B700CF027800804A78005F
:1016A0004E33EC00280B0400000000005AF3EF005A
:1016B00040C2A9005AD3BF0048E2B7004022AF00A1
:1016C000FEFF37004002AE00FEFF370048C2BF00F9
:1016D00000E0B7005AF3EF0040C2A9005AD3BF00A0
:1016E00048E2B7004022AF00FEFF37004002AE00E4
:1016F000FEFF370048C2BF0000E0B7005AF3EF001A
:1017000040C2A9005AD3BF0048E2B7004022AF0050
:10171000FEFF37004002AE00FEFF370048C2BF00A8
:1017200000E0B700D0A2A900D4A2A8000060EF009A
:1017300004003700D0A2A900D4A2A80010C0B300B2
:1017400000E0B700CF02780000000600851F780097
:10175000F032EF00F232EF00F432EF00F632EF0039
:10176000F832EF00FA32EF00FC32EF00FE32EF0009
:101770000073EF0010C0B300EEF2B7000433EF00C7
:101780000633EF0041E2A90040C2A900D4132000B3
:101790001412880041E2A800818720000200200086
:1017A000FF0109008058EB00D0A2A900D4A2A80034
:1017B0000233EF00149880006A20E1000D00310030
:1017C0005AF3EF0040C2A9005AD3BF0048E2B70065
:1017D0004022AF00FEFF37004002AE00FEFF3700A0
:1017E00048C2BF0000E0B7000233EC00DA0B04008F
:1017F00000000000D0A2A900D4A2A90000C4B30038
:1018000050F3B70050C9B30051F3B7005233EF00A3
:101810005433EF00EC09020000000000F0F2B700C2
:10182000849780006124E100DFFF3A0080C4B300A8
:1018300050F3B70070C8B30051F3B700A41A2000EA
:10184000949A88005433EF00EC0902000000000075
:10185000F0F2B700F0D2BF000160EF00640060005A
:101860000000E0000400320010C0B300EEF2B70048
:10187000A80C0400000000005AF3EF0040C2A900C9
:101880005AD3BF0048E2B7004022AF00FEFF370046
:101890004002AE00FEFF370048C2BF0000E0B700C4
:1018A000F1F2B7005AF3EF0040C2A9005AD3BF00CB
:1018B00048E2B7004022AF00FEFF37004002AE0012
:1018C000FEFF370048C2BF0000E0B700F2F2B700E9
:1018D0005AF3EF0040C2A9005AD3BF0048E2B70054
:1018E0004022AF00FEFF37004002AE00FEFF37008F
:1018F00048C2BF0000E0B700F3F2B7005AF3EF00B0
:1019000040C2A9005AD3BF0048E2B7004022AF004E
:10191000FEFF37004002AE00FEFF370048C2BF00A6
:1019200000E0B700F4F2B700A4978000A4CAB200A8
:1019300005003200D0A2A900D4A2A80010C0B300B4
:1019400000E0B7009D00370020C0B300EEF2B70002
:10195000749780006224E10004003A000000200037
:1019600001002400BA0C0400000000000000200068
:101970000100200004B3B7003198880074978000FC
:101980006224E10003003A0070C7B300CC0C0400ED
:101990000000000000C0EB00EFF2B70070C7B3001A
:1019A00050F3B70050C6B30051F3B7005233EF0005
:1019B0005433EF00EC0902000000000090C6B300B1
:1019C00050F3B700EFD2BF0051F3B7000413F80093
:1019D0005213F9000613F8005413F900EC09020041
:1019E00000000000F0F2B7006216090000000000DD
:1019F000FF3F090000000000F052E200E7FF3A005C
:101A0000749780006224E1004A003A00A0C7B30046
:101A100050F3B700F0CFB30051F3B7005233EF00EB
:101A20005433EF00EC09020000000000F0F2B700B0
:101A3000F052E2003A003A005AF3EF0040C2A90027
:101A40005AD3BF0048E2B7004022AF00FEFF370084
:101A50004002AE00FEFF370048C2BF0000E0B70002
:101A6000F1F2B7005AF3EF0040C2A9005AD3BF0009
:101A700048E2B7004022AF00FEFF37004002AE0050
:101A8000FEFF370048C2BF0000E0B700F2F2B70027
:101A90005AF3EF0040C2A9005AD3BF0048E2B70092
:101AA0004022AF00FEFF37004002AE00FEFF3700CD
:101AB00048C2BF0000E0B700F3F2B7005AF3EF00EE
:101AC00040C2A9005AD3BF0048E2B7004022AF008D
:101AD000FEFF37004002AE00FEFF370048C2BF00E5
:101AE00000E0B700F4F2B700F1D2BF000160EF00F0
:101AF00080427800050CB200040C20000520E100B3
:101B000003003A0010C0B3008A0D0400000000007A
:101B10000040EB00B6F2B7009A0D04000000000090
:101B2000D0A2A900D4A2A80010C0B30000E0B70062
:101B30002200370041E2A90040C2A900F4132000AE
:101B40001412880041E2A8004633EF004833EF004A
:101B500084872000549A8800D20A02000000000006
:101B6000B453800054C5B20011003A00B453800051
:101B70004822DE00A4CAB2000D003A0041CABF00EC
:101B80007BEAB70040CABF007AEAB7003FCABF008D
:101B900079EAB7003ECABF0078EAB700C4438000C4
:101BA000B4CEB20002003A00782AEF007A2AEF00A1
:101BB000D0A2A900D4A2A8000060EF00CF02780054
:101BC00000000600851F7800861F7800871F7800B8
:101BD0002400200074978800F032EF00780AF800A3
:101BE0004613F9007A0AF8004813F90084872000A8
:101BF000549A8800D20A02000000000044C9200064
:101C0000C497880084872000B4978800C597800017
:101C10000503780086007800B29780000200090072
:101C2000B2587800C597800063834200B497800063
:101C3000E3034200860078000701780007000900EE
:101C4000B258780083C8BF00A0ECB70084C8BF00BA
:101C5000A1ECB70085C8BF00A2ECB70086C8BF00E2
:101C6000A4ECB70087C8BF00A5ECB70088C8BF00C8
:101C7000A6ECB70089C8BF00A8ECB7008AC8BF00AF
:101C8000A9ECB7008BC8BF00AAECB7008CC8BF0096
:101C9000ABECB7008DC8BF00ACECB7008EC8BF007E
:101CA000AEECB7008FC8BF00AFECB70090C8BF0064
:101CB000B0ECB70091C8BF00B1ECB70092C8BF004C
:101CC000B2ECB70093C8BF00B3ECB70097C8BF0031
:101CD000B7ECB70096C8BF00B6ECB70095C8BF0018
:101CE000B5ECB70094C8BF00B4ECB7009BC8BF0008
:101CF000BBECB7009AC8BF00BAECB70099C8BF00E8
:101D0000B9ECB70098C8BF00B8ECB7009FC8BF00D7
:101D1000BFECB7009EC8BF00BEECB7009DC8BF00B7
:101D2000BDECB7009CC8BF00BCECB700A0C8BF00AA
:101D3000C0ECB700A1C8BF00C1ECB700A2C8BF008B
:101D4000C2ECB700A3C8BF00C3ECB700A7C8BF0070
:101D5000C7ECB700A6C8BF00C6ECB700A5C8BF0057
:101D6000C5ECB700A4C8BF00C4ECB700A8C8BF004A
:101D7000C8ECB700A9C8BF00C9ECB700AAC8BF002B
:101D8000CAECB700ABC8BF00CBECB700C59780006A
:101D9000840320000483420044032000B3978000A2
:101DA0008483410086007800070178000B00090059
:101DB000B2587800B8C8BF00D8ECB700B9C8BF00A7
:101DC000D9ECB700BAC8BF00DAECB700BEC8BF0094
:101DD000DFECB700BDC8BF00DEECB700BCC8BF0079
:101DE000DDECB700BBC8BF00DCECB700C5978000D6
:101DF000C40420000483420074042000B3978000D0
:101E00008483410086007800070178000A000900F9
:101E1000B2587800C5978000740520000483420002
:101E200024052000B3978000848341008600780059
:101E30000701780007000900B2587800C5978000B4
:101E4000F405200004834200A4052000B39780001D
:101E5000848341008600780007017800A30109000F
:101E6000B258780077CABF0098EEB70076CABF00B4
:101E700099EEB700746780000443B1000440780015
:101E800000E0B700004278000960EF006A20B80067
:101E900080027800746780004822DE00848242005D
:101EA0000403200004C052009AEEB700D4748000EE
:101EB00004C2B2000A003A00BC0CF800A40EF900FB
:101EC000BE0CF800A60EF900C40CF800EE12F900E2
:101ED000C60CF800F012F900A00F0400000000008A
:101EE000C59780007405200004834200640320002D
:101EF000B397800084834100860078000701780052
:101F000007000900B2587800746780000443B100EC
:101F10000440780000E0B700004278000960EF005C
:101F20006A20B80080027800746780004822DE00D2
:101F3000848242000403200004C052009AEEB700DD
:101F4000D47480007024E10022003A00A2C8BF00CF
:101F5000DFECB700A1C8BF00DEECB700A0C8BF002F
:101F6000DDECB7009FC8BF00DCECB700C597800070
:101F7000C404200004834200B4022000B397800010
:101F80008483410086007800070178000A00090078
:101F9000B2587800C5978000740520000483420081
:101FA00064032000B397800084834100860078009A
:101FB0000701780007000900B2587800AE0CF8005D
:101FC000A40EF900A62EEF00A80CF800EE12F900FE
:101FD000F032EF00A2CCBF009BEEB700780AF80009
:101FE000F212F9007A0AF800F412F900F292BF0036
:101FF000A40CB400F2B2B700A497800060004A00BD
:10200000F4B2B700F212F800AC0EF900F212F800C8
:102010009C0EF900F292BF00A40EB400F2B2B70019
:1020200034758000A397800004804900F4B2B700A3
:10203000F212F8009E0EF900F292BF00A40EB40056
:10204000F2B2B70034758000A39780000480490085
:10205000F4B2B700F212F800A80EF900F412F8007A
:10206000AA0EF900D47480004822DE009397800005
:1020700004804100F2B2B700A3978000608049005D
:10208000F4B2B700F212F800A00EF900F412F80052
:10209000A20EF900D47480007024E10009003A0017
:1020A000A88CBF004400DE0044758000040040009E
:1020B000A0AEB700547580000300200004804900E2
:1020C000A2AEB700CF0378004F037800CF027800AC
:1020D00000000600851F7800C500200003000900ED
:1020E000B51F7800090020004300AF001900200050
:1020F000891F78000002EB008002EB000003EB0078
:102100008003EB0003046900110032000802200084
:102110004200A9000080D2008180D2000482D20057
:102120008582D2000328E10001003A0002A0E1000C
:10213000030039000202520083825A004200A800C4
:102140000683D2008783D2000804E900F0FF3A003A
:102150008700780006007800CF0478000900E000CE
:10216000010032000400BE00250120000300090028
:10217000CF127800CF02780000000600851F78009B
:10218000861F78003613F8003A13F9003813F80068
:102190003C13F900D47480007024E1000E003A0072
:1021A00024002000B5998000C69980000402E80050
:1021B0000402E900030032000603D1008582D30047
:1021C000FBFF3700050078009C0EB4003EB3B7005B
:1021D00060004B0040B3B700D474800004C2B2006A
:1021E0000E003A0034002000B5998000C6998000A6
:1021F0000402E8000402E900030032000603D100F3
:102200008582D300FBFF3700050078009C0EB400E8
:102210003EB3B70060004B0040B3B700D4748000F9
:102220007024E10004003A000010200001002000AA
:102230002011040000000000000820000100200020
:102240004300A80000017800810178003693BF00A8
:10225000C19980006A1002000000000042B3B7007C
:10226000219A8800D474800004C2B20047003A006A
:10227000049A80006020E10042003E000400390022
:102280003E93BF00F47480000020E1003D00360062
:102290003E13F8004613F9004013F8004813F90004
:1022A000E4EA2000549A8800D20A020000000000EC
:1022B000249A80006020E1002B003E0004003900D9
:1022C000149A8000030820000418E100260036005C
:1022D000240020004293BF00219A80000402E800FD
:1022E0000402E900030032000000D0008180D20027
:1022F000FBFF3700E4EA200004004000A4002000B7
:10230000301A7800301A78000500E0000E003A001C
:102310000600E0000C003A00E49980006020E10033
:1023200006003E0003003900D49980006320E100DC
:1023300002003100AA110400000000003A93BF001F
:10234000E19980005F0037003A33EC004220AF0093
:102350003C33EC004233EC004220AF004433EC004D
:1023600058110400000000004233EF004433EF0036
:102370003E33EC004220AF004033EC003811040043
:10238000000000004E12040000000000D474800021
:102390007024E10041003A00049A80006020E100CE
:1023A0003E003E00040039003E93BF00F4748000FC
:1023B0000020E100390036003E13F8004613F90012
:1023C0004013F8004813F900E40A2100549A8800E9
:1023D000D20A020000000000249A80006020E10080
:1023E00027003E0004003900149A800003102000EA
:1023F0000418E10022003600140020004293BF00C0
:10240000219A80000402E8000402E900030032007F
:102410000000D0008180D200FBFF3700E40A2100D9
:1024200004004000900278000500E0000C003A0033
:10243000E49980006020E10006003E0003003900BE
:10244000D49980006220E1000200310036120400BD
:10245000000000003A93BF00E199800019003700A6
:102460003A33EC004220AF003C33EC004233EC0046
:102470004220AF004433EC00EC11040000000000E7
:102480004233EF004433EF003E33EC004220AF0014
:102490004033EC00CC11040000000000D474800034
:1024A0007024E10004003A00F0FF2F00010020003A
:1024B0006012040000000000F0FF2F00F1FF200078
:1024C0000000BE004F037800CF0278000000060035
:1024D000851F7800C500200003000900B51F7800A3
:1024E0000202B8000303B8004200A90085024300BD
:1024F00060844B00020BB80085024B0008844B003F
:10250000030BB800080443000780B000870178007F
:10251000080178008500780004007800250120007B
:1025200003000900CF127800CF02780000000600F7
:10253000851F7800B652E20007003A0094002000A0
:102540000402E8000402E900030032003A33D40038
:102550003CB3D600FBFF3700D0A2A900D4A2A9004B
:1025600080C5B30050F3B700F0CFB30051F3B7000C
:102570003A13F8005213F9003C13F8005413F90011
:10258000EC0902000000000040F3B7004173EF00C7
:102590004013E2007A003A005AF3EF0040C2A9006B
:1025A0005AD3BF0048E2B7004022AF00FEFF370019
:1025B0004002AE00FEFF370048C2BF0000E0B70097
:1025C000E0CFB3005AF3B70040C2A9005AD3BF000E
:1025D00048E2B7004022AF00FEFF37004002AE00E5
:1025E000FEFF370048C2BF0000E0B7004033EF00F5
:1025F000049A8000032020000418E1001400360033
:102600004093BF003E13B40090427800851F7800CD
:102610005A13F800E5FF9F005A13F90040C2A900C1
:102620005AD3BF0048E2B7004022AF00FEFF370098
:102630004002AE00FEFF370048C2BF0000E0B70016
:10264000CF0278004033EC00F812040000000000D4
:102650005AF3EF0040C2A9005AD3BF0048E2B700C6
:102660004022AF00FEFF37004002AE00FEFF370001
:1026700048C2BF0000E0B7005AF3EF0040C2A90013
:102680005AD3BF0048E2B7004022AF00FEFF370038
:102690004002AE00FEFF370048C2BF0000E0B700B6
:1026A0005AF3EF0040C2A9005AD3BF0048E2B70076
:1026B0004022AF00FEFF37004002AE00FEFF3700B1
:1026C00048C2BF0000E0B70040F3B7004173EF001D
:1026D0004093BF00FF0260006528E100F0FF3A0070
:1026E0005AF3EF0040C2A9005AD3BF0048E2B70036
:1026F0004022AF00FEFF37004002AE00FEFF370071
:1027000048C2BF0000E0B70040F3B7004173EF00DC
:1027100026020900000000004013E200F0FF320032
:102720005AF3EF0040C2A9005AD3BF0048E2B700F5
:102730004022AF00FEFF37004002AE00FEFF370030
:1027400048C2BF0000E0B7005AF3EF0040C2A90042
:102750005AD3BF0048E2B7004022AF00FEFF370067
:102760004002AE00FEFF370048C2BF0000E0B700E5
:10277000D0A2A900D4A2A8000060EF000400370096
:10278000D0A2A900D4A2A80010C0B30000E0B700F6
:10279000CF02780000000600851F7800861F7800B1
:1027A000EE72EF00A80EF800F612F900AA0EF8007B
:1027B000F812F900A00EF800FA12F900A20EF800C3
:1027C000FC12F900D47480007024E10004003A0087
:1027D0000000200001002000F413040000000000AD
:1027E0001000200001002000FEB2B7000198880010
:1027F000F612F800F012F900F812F800F212F900DF
:10280000F292BF00E49780000020E10095013900BA
:1028100004003E00F092BF00D49780000020E10049
:1028200090013600F012F8004613F900F212F80099
:102830004813F90084872000549A8800D20A0200C5
:1028400000000000F432EF00A49780000320200075
:102850000418E1007E01360084872000A3978000E1
:10286000048041001004E00006003200848720004C
:10287000A39780000480410010427800F4CFB2009A
:102880006D013A00C0C4B30016F3B70010C4B30022
:1028900017F3B70040C5B30018F3B70090C4B300F6
:1028A00019F3B70040C4B3001AF3B700F0C4B30083
:1028B0001BF3B70030C5B3001CF3B700F0C5B3007D
:1028C0001DF3B70040C5B3001EF3B70080C5B300C9
:1028D0001FF3B70040C5B30020F3B7002273EF0029
:1028E0002373EF00B3D2BF00804278000B60EF008B
:1028F000CB2ADD00B4D2BF000CE0B7000D60EF00C2
:102900004530DD0085024000B5D2BF000160EF0018
:102910004100DE000500400024B3B700749580003C
:10292000C37B200083025200C92ADD00B1D2BF0060
:10293000004378000D60EF004530DD008502400067
:10294000B2D2BF000160EF000500400026B3B7001F
:102950002613F8002813F9002A33EF0000C2B30051
:1029600021F3B7002413F8002C13F9002613F80004
:102970002E13F9003033EF003233EF003433EF0021
:10298000F412F8008E0CF900F012F8008A0AF9002F
:10299000F212F8008C0AF9008A0AF8004613F900CE
:1029A0008C0AF8004813F900E4A82000549A880023
:1029B000D20A020000000000F032EF00F232EF0015
:1029C000949780006020E10013003E00040039006D
:1029D00084978000030220000418E1000E003600F6
:1029E00084872000A3978000848241006431210005
:1029F0008397800004804100904A7800F492BF00E1
:102A0000F432EC00F032EC004220AF00F232EC0085
:102A1000E014040000000000F032EF00F232EF009A
:102A2000949780006020E10011003E00040039000E
:102A300084978000032020000418E1000C00360079
:102A4000E0A82000F012B400800278008487200003
:102A50008397800004804100904A7800F032EC00B7
:102A60004220AF00F232EC0010150400000000001C
:102A7000842AEF00D47480007024E1002B003A0017
:102A800024002000B49988003833EF00BE10020003
:102A90000000000012B3B700A19888001213F800DC
:102AA0007C0AF9001413F8007E0AF900E453800050
:102AB000E2025200F453800060035A009BCEBF0034
:102AC000004178000560EF00030020000500780059
:102AD0008600780068120200000000008002780082
:102AE0000103780005007800A00EB40080AAB700AA
:102AF0001475800004004B0082AAB7007DCABF0095
:102B0000804278007ECABF000BE0B7007FCABF00DA
:102B1000004378000D60EF0005007800AC0EB400B3
:102B200086AAB70060004B0088AAB700D474800062
:102B300004C2B2002D003A0034002000B49988008D
:102B40003833EF00BE1002000000000012B3B700DF
:102B5000A19888001213F8007C0AF9001413F800F9
:102B60007E0AF900E4538000E3025200F45380002F
:102B700060035A009BCEBF00004178000560EF0063
:102B8000030020000500780086007800681202002B
:102B90000000000080027800010378000500780042
:102BA000A00EB40080AAB7001475800004004B008A
:102BB00082AAB70074002000E5538000F65380001D
:102BC0000402E8000402E900030032000603D10019
:102BD0008582D300FBFF370005007800AC0EB400FF
:102BE00086AAB70060004B0088AAB7007464800012
:102BF000FB024200E4A82000048342007DCABF001B
:102C0000004B780074648000FA024200E4A82000BF
:102C1000048342007CCABF00004B780074648000CB
:102C2000F5024200E4A82000048342007FCABF00EE
:102C3000004B780074648000F4024200E4A8200095
:102C4000048342007ECABF00004B7800902CEF0046
:102C5000922CEF00D47480007024E10035003A001B
:102C60008A0AF8003A13F9008C0AF8003C13F900BC
:102C7000E4A82000F49988009812020000000000E7
:102C8000860AF8004613F900880AF8004813F9008C
:102C9000E40A2100549A8800D20A020000000000D1
:102CA000E5538000F50FB2000003EB001400200094
:102CB00005007800860078000402E8000402E900BC
:102CC000030032000000D0008180D200FBFF3700FB
:102CD000E40A21008402400080CAEB00F0CFB30078
:102CE00090429800860AF8003A13F900880AF80022
:102CF0003C13F900E40A2100F499880098120200BC
:102D000000000000868ABF00A40EB4008002780094
:102D1000888ABF00A68EB40000037800D599880089
:102D2000E6998800E40A2100F499880098120200CC
:102D300000000000D474800004C2B20039003A00E0
:102D40008A0AF8003A13F9008C0AF8003C13F900DB
:102D5000E4A82000F4998800981202000000000006
:102D6000860AF8004613F900880AF8004813F900AB
:102D7000E4EA2000549A8800D20A02000000000011
:102D8000E5538000F507B2000003EB0024002000AB
:102D900005007800860078000402E8000402E900DB
:102DA000030032000000D0008180D200FBFF37001A
:102DB000E4EA20008402400080CAEB00F0CFB300B8
:102DC00090429800F0CFB300A0429800F0C0B3004A
:102DD000B0429800860AF8003A13F900880AF80011
:102DE0003C13F900E4EA2000F499880098120200EC
:102DF00000000000868ABF00A40EB40080027800A4
:102E0000888ABF00A68EB40000037800D599880098
:102E1000E6998800E4EA2000F499880098120200FC
:102E20000000000010C0B300EEF2B700EED2BF0009
:102E300000E0B7000D00370004022000A3978000D7
:102E400004804100F4B2B700241404000000000024
:102E5000F032EC004220AF00F232EC00001404002B
:102E600000000000EED2BF0000E0B7004F03780082
:102E7000CF02780000000600F4F92F004416880005
:102E8000F4FD2F0084168800E001200050070200A6
:102E900000000000A60B020000000000E20D02008E
:102EA00000000000CC13020000000000000006003B
:102EB000851F78007428EF007228EF006E28EF005D
:102EC0007028EF005B08A9006A28EF006C28EF006B
:102ED000EE32EF00749780006620E10011003D00A3
:102EE000749780006220B800C485200084024000EE
:102EF0002003A9002023A8002003AE00FEFF370016
:102F00000418800084029800621609000000000086
:102F1000FF3F090000000000EE32EC006A170400D9
:102F20000000000094E0A800CF0278000000060036
:102F300010C0B3002EF3B700F2070200000000003B
:102F400064242500749788005434240084978800F2
:102F50005455240094978800E4342400A4978800F2
:102F600094142400B497880004022500C4978800B4
:102F700004D52400D4978800A4032200E497880095
:102F8000FE72EF00D4D2220004988800D4D222002E
:102F900014988800D4D2220024988800D4D2220029
:102FA00034988800D4D2220044988800D4D22200D9
:102FB00054988800D4D2220064988800D4D2220089
:102FC00074988800D4D2220084988800D40220000B
:102FD0009498880024442500A4988800F4B4240020
:102FE000B498880004022500C498880014242500A1
:102FF000D498880014042200E49888006494240083
:10300000F4988800E414240004998800C4942400EF
:1030100014998800A4152400249988002405200010
:10302000349988002873EF002973EF00D00802005C
:1030300000000000E42E210044998800F0080200FE
:103040000000000010C0B30028F3B7002973EF00A0
:10305000D0080200000000000430210044998800DC
:10306000F00802000000000020C0B30028F3B70001
:103070002973EF00D0080200000000004431210055
:1030800044998800F00802000000000000000600DB
:1030900010C0B3002EF3B700F207020000000000DA
:1030A0002873EF002973EF00D00802000000000031
:1030B0000455250074978800C4342500849788003F
:1030C000143424009497880094F42400A497880072
:1030D000E4542400B497880034052200C497880083
:1030E00054C42400D497880054642500E4978800D1
:1030F00014442400F49788001434250004988800B0
:103100000273EF00E42E210044998800F0080200C9
:10311000000000000000060010C0B3002EF3B7004E
:10312000F2070200000000002873EF002973EF008F
:10313000D0080200000000000455250074978800A4
:10314000C4342500849788001434240094978800A0
:1031500094F42400A4978800E4542400B4978800D1
:1031600034052200C497880024142400D4978800D2
:10317000A4142400E497880034052000F497880004
:10318000E42E210044998800F008020000000000AD
:1031900000000600811F7800E196800080587800CA
:1031A0008048EB00CF007800DC32EC000000060025
:1031B000851F7800C500200003000900B51F7800B6
:1031C00000F0A6000F0037000000EA000480A00015
:1031D00004F0A6000B003700801F7800D00220000A
:1031E000841F7800801F78004F007800CA18020002
:1031F000000000004F0278004F0078000480A1001A
:103200000860ED008002EB00800378008404780001
:1032100004F0A1000404E00006003A0009F0A70051
:1032200002003700050020001700370005002000CD
:10323000150037000980A600E64252000980A70069
:10324000E74252000F0039000003200009F0A600F9
:1032500000022000801F7800841F7800801F780003
:103260004F007800CA180200000000004F027800EA
:103270004F0078008502E900F6FF3B005500200072
:103280000100370084027800640020000580A70058
:103290000402E80005E0A00009F0A70005F0A00086
:1032A00008712200110009008883D800AA190200C1
:1032B0000000000081037800883E20001100090012
:1032C0008883D800AA19020000000000810378005A
:1032D00048062000110009008883D800AA190200BE
:1032E0000000000081037800A80020001100090000
:1032F0008883D800AA190200000000000980A600F7
:103300000A003700D0022000811F7800841F780057
:10331000801F78004F007800CA18020000000000EB
:103320004F027800CF0078000980A1000003200040
:1033300000C0400050018800841F7800801F780082
:103340004F007800CA180200000000004F02780009
:103350002A003700060320000000E0000E003A00BB
:1033600005E0A6001B0037000402E9000524E10087
:10337000020032004200AF00000006000000E00042
:1033800005003A0005E0A6001200370005F0A6008F
:10339000060220000F00370005E0A1000980A6000A
:1033A0000C00370000057800D0022000811F780053
:1033B000841F7800801F78004F007800CA18020030
:1033C000000000004F027800CF0078000980A100C3
:1033D0000A00780000404300811F7800841F7800B5
:1033E000801F78004F007800CA180200000000001B
:1033F0004F027800CF007800000006002501200071
:1034000003000900CF127800CF0278000000060008
:10341000851F7800C500200003000900B51F780053
:1034200000F0A6000C0037000000EA000480A000B5
:1034300004F0A60008003700801F7800D0022000AA
:103440002322AF00FEFF370024A2B7004F00780010
:103450000480A1000860ED008002EB00800378008A
:103460008404780004F0A1000404E00006003A009F
:1034700009F0A70002003700050020001400370003
:1034800005002000120037000980A600E642520025
:103490000980A700E74252000C0039000003200019
:1034A00009F0A60000022000801F78002322AF0050
:1034B000FEFF370024A2B7004F0078008502E90024
:1034C000F9FF3B005500200001003700840278001E
:1034D000640020000580A7000402E80005E0A000C9
:1034E00009F0A70005F0A0000871220011000900F2
:1034F0008883D800BE1A0200000000008103780013
:10350000883E2000110009008883D800BE1A0200FE
:103510000000000081037800480620001100090027
:103520008883D800BE1A02000000000081037800E2
:10353000A8002000110009008883D800BE1A0200EC
:10354000000000000980A60005003700D00220001E
:103550002322AF00FEFF370024A2B7000980A1009C
:103560000003200000C04000500188002322AF006B
:10357000FEFF370024A2B70020003700060320001A
:103580000000E0000E003A0005E0A600160037003B
:103590000402E9000524E100020032004200AF000D
:1035A000000006000000E00005003A0005E0A6006B
:1035B0000D00370005F0A600060220000A003700C3
:1035C00005E0A1000980A60007003700000578008B
:1035D000D00220002322AF00FEFF370024A2B70054
:1035E0000980A1000A007800004043002322AF00B8
:1035F000FEFF370024A2B7000000060025012000CE
:1036000003000900CF127800CF0278000000060006
:10361000C122A80000000000C322AE00FCFF37005A
:1036200001002000010078000160EF003602020076
:10363000000000008100E8002322AF00FEFF3700F9
:1036400024A2B700700220000008E600F5FF370052
:1036500001002000010078000160EF006C02020010
:10366000000000008100E8002322AF00FEFF3700C9
:1036700024A2B700C00020000008E600F5FF3700D4
:1036800001002000010078000160EF0086020200C6
:10369000000000008100E8002322AF00FEFF370099
:1036A00024A2B700C00020000008E600F5FF3700A4
:1036B000EE92BF0034002800081A0200000000004B
:1036C0002322AF00FEFF3700A40020002411880051
:1036D000C122A80000000000C322AF000200370092
:1036E000081B04000000000000000600851F780091
:1036F000861F7800871F7800800AF8003A13F900C7
:10370000820AF8003C13F90084872000F4998800AD
:103710009812020000000000802AEC004220AF0056
:10372000822AEC00D47480007024E10018003A0072
:10373000E4538000E2025200F453800060035A0018
:103740009BCEBF00004178000560EF000300200021
:103750000500780086007800681202000000000072
:10376000800278000103780005007800A00EB40004
:103770001475800084004B00045480000000520047
:10378000F0B2B7001454800001005A00F2B2B70042
:10379000D474800004C2B20018003A00E4538000E0
:1037A000E3025200F453800060035A009BCEBF0036
:1037B000004178000560EF0003002000050078005C
:1037C0008600780068120200000000008002780085
:1037D0000103780005007800A00EB4001475800085
:1037E00084004B000454800000005200F0B2B70087
:1037F0001454800001005A00F2B2B7004300A80040
:103800009BCEBF00004178000560EF000300200060
:10381000F092BF00919780006A1002000000000043
:1038200080027800010378000500E00040003A00C3
:103830000600E0003E003A007C0AF800F812F900A9
:103840007E0AF800FA12F900F812F8003613F900AF
:10385000FA12F8003813F900BE1002000000000050
:10386000F4B2B700B1978800F412F8007C0AF900AE
:10387000F612F8007E0AF900D47480007024E1008A
:1038800014003A00A4978000E2025200B49780002E
:1038900060035A009BCEBF00004178000560EF0036
:1038A00003002000050078008600780068120200FE
:1038B0000000000080027800010378000500780015
:1038C000A00EB40080AAB7001475800004004B005D
:1038D00082AAB700D474800004C2B20014003A0077
:1038E000A4978000E3025200B497800060035A005E
:1038F0009BCEBF00004178000560EF000300200070
:1039000005007800860078006812020000000000C0
:10391000800278000103780005007800A00EB40052
:1039200080AAB7001475800004004B0082AAB7007B
:1039300004202000836480000480410090ACB70024
:103940009464800060004A0092ACB7007464800008
:10395000FC024200E4A820000483420090CCBF0097
:10396000004B780074648000FD024200E4A820004F
:103970000483420091CCBF00004B78007464800047
:10398000FE024200E4A820000483420092CCBF0063
:10399000004B780074648000FF024200E4A820001D
:1039A0000483420093CCBF00004B7800B3D2BF0029
:1039B000804278000B60EF00CB2ADD00B4D2BF005C
:1039C0000CE0B7000D60EF004530DD0085024000DF
:1039D000B5D2BF000160EF004100DE0005004000ED
:1039E000FCB2B70074958000C37B200083025200B4
:1039F000C92ADD00B1D2BF00004378000D60EF009E
:103A00004530DD0085024000B2D2BF000160EF000A
:103A100005004000FEB2B70074648000F802420066
:103A2000E4A8200004834200FED2BF00004B7800CF
:103A300074648000F9024200E4A82000048342007C
:103A4000FFD2BF00004B780074648000F602420091
:103A5000E4A8200004834200FCD2BF00004B7800A1
:103A600074648000F7024200E4A82000048342004E
:103A7000FDD2BF00004B780074648000F202420067
:103A8000E4A820000483420074648000F80342002C
:103A9000E4A8200004804300104B78007464800088
:103AA000F3024200E4A82000048342007464800012
:103AB000F9034200E4A8200004804300104B780082
:103AC0008A0AF8003A13F9008C0AF8003C13F9004E
:103AD000E4A82000F4998800981202000000000079
:103AE000CF0378004F037800CF0278000000060073
:103AF000851F7800861F7800842B2100E4968800BB
:103B0000EE92BF0034002800D81802000000000028
:103B1000A0C0B300CA18020000000000C9C2A9007A
:103B2000CDC2AA00D832EF00C49680006420E10024
:103B30000D003D00D49680006420B800C49680003B
:103B4000840240008487200004834200842B2100EB
:103B5000C396800004804100104B7800D832EC00FE
:103B6000941D040000000000DA32EC00761B020015
:103B7000000000004F037800CF027800000006002C
:103B800010C0B3002EF3B700F207020000000000DF
:103B90002873EF002973EF00D00802000000000036
:103BA0006494260074978800E406220084978800B5
:103BB0004456260094978800C4062200A4978800E3
:103BC00004272700B4978800F4762600C49788005D
:103BD00024172600D4978800D4162600E49788007E
:103BE000FE72EF00E42E210044998800F0080200E4
:103BF00000000000000006000FF52300F0FF230086
:103C000020A0B700000000004044240030058800D8
:103C1000404424008005880081E0A8000600FC00E4
:103C2000217420006204200073052000824878007F
:103C30008348780042C7A90040F12300A4A6B7003A
:103C400070602000A8A6B70000702000C4A6B700CE
:103C500080002000C6A6B70000302000D2A6B70022
:103C600030012000D6A6B7000600FC002174200019
:103C700062042000730520008248780083487800A1
:103C800042C7A800CD22A90007E2A80007A2A80009
:103C900006C2A8000762A90006E2A9000702A9005F
:103CA0000722A8000742A9000A22EF00F41F200003
:103CB00024108800447E20007495880040C1B30021
:103CC000B0F2B700A0C0B300B1F2B700F0C0B300CB
:103CD000B2F2B700C0C0B300B3F2B70020C2B30065
:103CE000B4F2B70080C3B300B5F2B700782AEF0092
:103CF0007A2AEF00DC32EF0004002800041188006B
:103D000004402000141188002062A9002400200033
:103D1000441188002CA3EF00DA32EF00EC32EF0000
:103D2000E012A900E032A900E052A90060070200F9
:103D3000000000002608020000000000B608020093
:103D4000000000004C09020000000000C0E2A800D2
:103D500000000000C2E2AE00050037002003200092
:103D60005007020000000000A61E04000000000032
:103D7000C0E2A80000000000C2E2AF00050037006A
:103D8000200320005007020000000000B81E0400BD
:103D900000000000D4090200000000003C170200EF
:103DA000000000001021EF00D4AC2000640888005F
:103DB00004012800840888002021EF0004A32200C9
:103DC000E40888000403280004098800581702004A
:103DD000000000009780A8008187200002002000DA
:103DE000FF0109008058EB00981702000000000056
:103DF0006216090000000000FF3F090000000000FB
:103E0000C0E2A80000000000C2E2AE004C00370093
:103E1000F4968000A30F20000418E10009003E0082
:103E2000E032AF0002003700481802000000000036
:103E3000E032A800E052A900E012A800DE12F8006B
:103E4000EC12F900F4968000330220000418E1001F
:103E50000B003900E052AF00020037008C1802005E
:103E600000000000E032A900E052A800E012A80023
:103E7000DE12F800EC12F900D0C2A900D4C2AA00E8
:103E8000E012AF0020003700D0C2A900D4C2A900C0
:103E9000DE92BF00EC12E3001B0032009817020014
:103EA00000000000242E2100E4968800DE92BF006E
:103EB00004002000D81802000000000000C2B30077
:103EC000CA1802000000000000C2B300CA180200B5
:103ED000000000002873EF0000C1B30029F3B70011
:103EE000D008020000000000242E21004499880020
:103EF000F008020000000000DE12F800EC12F900E9
:103F0000E052A900E032A9005B28AE0009003700AA
:103F1000DE12F800EE12F900081B0200000000009B
:103F2000DE12F800EE12F900781D02000000000019
:103F30005B28A900E012A900001F04000000000097
:103F4000C01D02000000000094E0A9000000000075
:0C3F50009780A90000000000FFFF370070
:0200000401F009
:10000000CF00FF00CF00FF000700FF000200FF004D
:100010006200FF005F00FF00F700FF004300FF00E9
:00000001FF
;DSPIC33FJ128MC804
;CRC=D9CA  CREATED="26-ene.-21 22:23"
